{
  "abi": [
    {
      "inputs": [
        {
          "internalType": "address[]",
          "name": "admins",
          "type": "address[]"
        }
      ],
      "stateMutability": "nonpayable",
      "type": "constructor"
    },
    {
      "inputs": [],
      "name": "AccessControlBadConfirmation",
      "type": "error"
    },
    {
      "inputs": [
        {
          "internalType": "address",
          "name": "account",
          "type": "address"
        },
        {
          "internalType": "bytes32",
          "name": "neededRole",
          "type": "bytes32"
        }
      ],
      "name": "AccessControlUnauthorizedAccount",
      "type": "error"
    },
    {
      "inputs": [
        {
          "internalType": "address",
          "name": "spender",
          "type": "address"
        },
        {
          "internalType": "uint256",
          "name": "allowance",
          "type": "uint256"
        },
        {
          "internalType": "uint256",
          "name": "needed",
          "type": "uint256"
        }
      ],
      "name": "ERC20InsufficientAllowance",
      "type": "error"
    },
    {
      "inputs": [
        {
          "internalType": "address",
          "name": "sender",
          "type": "address"
        },
        {
          "internalType": "uint256",
          "name": "balance",
          "type": "uint256"
        },
        {
          "internalType": "uint256",
          "name": "needed",
          "type": "uint256"
        }
      ],
      "name": "ERC20InsufficientBalance",
      "type": "error"
    },
    {
      "inputs": [
        {
          "internalType": "address",
          "name": "approver",
          "type": "address"
        }
      ],
      "name": "ERC20InvalidApprover",
      "type": "error"
    },
    {
      "inputs": [
        {
          "internalType": "address",
          "name": "receiver",
          "type": "address"
        }
      ],
      "name": "ERC20InvalidReceiver",
      "type": "error"
    },
    {
      "inputs": [
        {
          "internalType": "address",
          "name": "sender",
          "type": "address"
        }
      ],
      "name": "ERC20InvalidSender",
      "type": "error"
    },
    {
      "inputs": [
        {
          "internalType": "address",
          "name": "spender",
          "type": "address"
        }
      ],
      "name": "ERC20InvalidSpender",
      "type": "error"
    },
    {
      "inputs": [
        {
          "internalType": "address",
          "name": "owner",
          "type": "address"
        }
      ],
      "name": "OwnableInvalidOwner",
      "type": "error"
    },
    {
      "inputs": [
        {
          "internalType": "address",
          "name": "account",
          "type": "address"
        }
      ],
      "name": "OwnableUnauthorizedAccount",
      "type": "error"
    },
    {
      "anonymous": false,
      "inputs": [
        {
          "indexed": true,
          "internalType": "address",
          "name": "owner",
          "type": "address"
        },
        {
          "indexed": true,
          "internalType": "address",
          "name": "spender",
          "type": "address"
        },
        {
          "indexed": false,
          "internalType": "uint256",
          "name": "value",
          "type": "uint256"
        }
      ],
      "name": "Approval",
      "type": "event"
    },
    {
      "anonymous": false,
      "inputs": [
        {
          "indexed": true,
          "internalType": "address",
          "name": "to",
          "type": "address"
        },
        {
          "indexed": false,
          "internalType": "uint256",
          "name": "amount",
          "type": "uint256"
        },
        {
          "indexed": false,
          "internalType": "string",
          "name": "description",
          "type": "string"
        }
      ],
      "name": "Minted",
      "type": "event"
    },
    {
      "anonymous": false,
      "inputs": [
        {
          "indexed": true,
          "internalType": "address",
          "name": "previousOwner",
          "type": "address"
        },
        {
          "indexed": true,
          "internalType": "address",
          "name": "newOwner",
          "type": "address"
        }
      ],
      "name": "OwnershipTransferred",
      "type": "event"
    },
    {
      "anonymous": false,
      "inputs": [
        {
          "indexed": true,
          "internalType": "bytes32",
          "name": "role",
          "type": "bytes32"
        },
        {
          "indexed": true,
          "internalType": "bytes32",
          "name": "previousAdminRole",
          "type": "bytes32"
        },
        {
          "indexed": true,
          "internalType": "bytes32",
          "name": "newAdminRole",
          "type": "bytes32"
        }
      ],
      "name": "RoleAdminChanged",
      "type": "event"
    },
    {
      "anonymous": false,
      "inputs": [
        {
          "indexed": true,
          "internalType": "bytes32",
          "name": "role",
          "type": "bytes32"
        },
        {
          "indexed": true,
          "internalType": "address",
          "name": "account",
          "type": "address"
        },
        {
          "indexed": true,
          "internalType": "address",
          "name": "sender",
          "type": "address"
        }
      ],
      "name": "RoleGranted",
      "type": "event"
    },
    {
      "anonymous": false,
      "inputs": [
        {
          "indexed": true,
          "internalType": "bytes32",
          "name": "role",
          "type": "bytes32"
        },
        {
          "indexed": true,
          "internalType": "address",
          "name": "account",
          "type": "address"
        },
        {
          "indexed": true,
          "internalType": "address",
          "name": "sender",
          "type": "address"
        }
      ],
      "name": "RoleRevoked",
      "type": "event"
    },
    {
      "anonymous": false,
      "inputs": [
        {
          "indexed": true,
          "internalType": "address",
          "name": "from",
          "type": "address"
        },
        {
          "indexed": true,
          "internalType": "address",
          "name": "to",
          "type": "address"
        },
        {
          "indexed": false,
          "internalType": "uint256",
          "name": "value",
          "type": "uint256"
        }
      ],
      "name": "Transfer",
      "type": "event"
    },
    {
      "inputs": [],
      "name": "DEFAULT_ADMIN_ROLE",
      "outputs": [
        {
          "internalType": "bytes32",
          "name": "",
          "type": "bytes32"
        }
      ],
      "stateMutability": "view",
      "type": "function"
    },
    {
      "inputs": [],
      "name": "MINTER_ROLE",
      "outputs": [
        {
          "internalType": "bytes32",
          "name": "",
          "type": "bytes32"
        }
      ],
      "stateMutability": "view",
      "type": "function"
    },
    {
      "inputs": [
        {
          "internalType": "address",
          "name": "owner",
          "type": "address"
        },
        {
          "internalType": "address",
          "name": "spender",
          "type": "address"
        }
      ],
      "name": "allowance",
      "outputs": [
        {
          "internalType": "uint256",
          "name": "",
          "type": "uint256"
        }
      ],
      "stateMutability": "view",
      "type": "function"
    },
    {
      "inputs": [
        {
          "internalType": "address",
          "name": "spender",
          "type": "address"
        },
        {
          "internalType": "uint256",
          "name": "value",
          "type": "uint256"
        }
      ],
      "name": "approve",
      "outputs": [
        {
          "internalType": "bool",
          "name": "",
          "type": "bool"
        }
      ],
      "stateMutability": "nonpayable",
      "type": "function"
    },
    {
      "inputs": [
        {
          "internalType": "address",
          "name": "account",
          "type": "address"
        }
      ],
      "name": "balanceOf",
      "outputs": [
        {
          "internalType": "uint256",
          "name": "",
          "type": "uint256"
        }
      ],
      "stateMutability": "view",
      "type": "function"
    },
    {
      "inputs": [
        {
          "internalType": "uint256",
          "name": "value",
          "type": "uint256"
        }
      ],
      "name": "burn",
      "outputs": [],
      "stateMutability": "nonpayable",
      "type": "function"
    },
    {
      "inputs": [
        {
          "internalType": "address",
          "name": "account",
          "type": "address"
        },
        {
          "internalType": "uint256",
          "name": "value",
          "type": "uint256"
        }
      ],
      "name": "burnFrom",
      "outputs": [],
      "stateMutability": "nonpayable",
      "type": "function"
    },
    {
      "inputs": [],
      "name": "decimals",
      "outputs": [
        {
          "internalType": "uint8",
          "name": "",
          "type": "uint8"
        }
      ],
      "stateMutability": "view",
      "type": "function"
    },
    {
      "inputs": [
        {
          "internalType": "bytes32",
          "name": "role",
          "type": "bytes32"
        }
      ],
      "name": "getRoleAdmin",
      "outputs": [
        {
          "internalType": "bytes32",
          "name": "",
          "type": "bytes32"
        }
      ],
      "stateMutability": "view",
      "type": "function"
    },
    {
      "inputs": [
        {
          "internalType": "bytes32",
          "name": "role",
          "type": "bytes32"
        },
        {
          "internalType": "address",
          "name": "account",
          "type": "address"
        }
      ],
      "name": "grantRole",
      "outputs": [],
      "stateMutability": "nonpayable",
      "type": "function"
    },
    {
      "inputs": [
        {
          "internalType": "bytes32",
          "name": "role",
          "type": "bytes32"
        },
        {
          "internalType": "address",
          "name": "account",
          "type": "address"
        }
      ],
      "name": "hasRole",
      "outputs": [
        {
          "internalType": "bool",
          "name": "",
          "type": "bool"
        }
      ],
      "stateMutability": "view",
      "type": "function"
    },
    {
      "inputs": [
        {
          "internalType": "address",
          "name": "to",
          "type": "address"
        },
        {
          "internalType": "uint256",
          "name": "amount",
          "type": "uint256"
        },
        {
          "internalType": "string",
          "name": "description",
          "type": "string"
        }
      ],
      "name": "mint",
      "outputs": [],
      "stateMutability": "nonpayable",
      "type": "function"
    },
    {
      "inputs": [],
      "name": "name",
      "outputs": [
        {
          "internalType": "string",
          "name": "",
          "type": "string"
        }
      ],
      "stateMutability": "view",
      "type": "function"
    },
    {
      "inputs": [],
      "name": "owner",
      "outputs": [
        {
          "internalType": "address",
          "name": "",
          "type": "address"
        }
      ],
      "stateMutability": "view",
      "type": "function"
    },
    {
      "inputs": [],
      "name": "renounceOwnership",
      "outputs": [],
      "stateMutability": "nonpayable",
      "type": "function"
    },
    {
      "inputs": [
        {
          "internalType": "bytes32",
          "name": "role",
          "type": "bytes32"
        },
        {
          "internalType": "address",
          "name": "callerConfirmation",
          "type": "address"
        }
      ],
      "name": "renounceRole",
      "outputs": [],
      "stateMutability": "nonpayable",
      "type": "function"
    },
    {
      "inputs": [
        {
          "internalType": "bytes32",
          "name": "role",
          "type": "bytes32"
        },
        {
          "internalType": "address",
          "name": "account",
          "type": "address"
        }
      ],
      "name": "revokeRole",
      "outputs": [],
      "stateMutability": "nonpayable",
      "type": "function"
    },
    {
      "inputs": [
        {
          "internalType": "bytes4",
          "name": "interfaceId",
          "type": "bytes4"
        }
      ],
      "name": "supportsInterface",
      "outputs": [
        {
          "internalType": "bool",
          "name": "",
          "type": "bool"
        }
      ],
      "stateMutability": "view",
      "type": "function"
    },
    {
      "inputs": [],
      "name": "symbol",
      "outputs": [
        {
          "internalType": "string",
          "name": "",
          "type": "string"
        }
      ],
      "stateMutability": "view",
      "type": "function"
    },
    {
      "inputs": [],
      "name": "totalSupply",
      "outputs": [
        {
          "internalType": "uint256",
          "name": "",
          "type": "uint256"
        }
      ],
      "stateMutability": "view",
      "type": "function"
    },
    {
      "inputs": [
        {
          "internalType": "address",
          "name": "to",
          "type": "address"
        },
        {
          "internalType": "uint256",
          "name": "value",
          "type": "uint256"
        }
      ],
      "name": "transfer",
      "outputs": [
        {
          "internalType": "bool",
          "name": "",
          "type": "bool"
        }
      ],
      "stateMutability": "nonpayable",
      "type": "function"
    },
    {
      "inputs": [
        {
          "internalType": "address",
          "name": "from",
          "type": "address"
        },
        {
          "internalType": "address",
          "name": "to",
          "type": "address"
        },
        {
          "internalType": "uint256",
          "name": "value",
          "type": "uint256"
        }
      ],
      "name": "transferFrom",
      "outputs": [
        {
          "internalType": "bool",
          "name": "",
          "type": "bool"
        }
      ],
      "stateMutability": "nonpayable",
      "type": "function"
    },
    {
      "inputs": [
        {
          "internalType": "address",
          "name": "newOwner",
          "type": "address"
        }
      ],
      "name": "transferOwnership",
      "outputs": [],
      "stateMutability": "nonpayable",
      "type": "function"
    }
  ],
  "bytecode": {
    "object": "0x60806040523480156200001157600080fd5b50604051620013c3380380620013c3833981016040819052620000349162000294565b336040518060400160405280600d81526020016c21393ab9b9b2b6399021b7b4b760991b8152506040518060400160405280600381526020016210961360ea1b8152508160039081620000889190620003f5565b506004620000978282620003f5565b5050506001600160a01b038116620000c957604051631e4fbdf760e01b81526000600482015260240160405180910390fd5b620000d4816200015c565b50620000e2600033620001ae565b5060005b815181101562000154576200013e7f9f2df0fed2c77648de5860a4cc508cd0818c85b8b8a1ab4ceeef8d981c8956a68383815181106200012a576200012a620004c1565b6020026020010151620001ae60201b60201c565b50806200014b81620004d7565b915050620000e6565b5050620004ff565b600580546001600160a01b038381166001600160a01b0319831681179093556040519116919082907f8be0079c531659141344cd1fd0a4f28419497f9722a3daafe3b4186f6b6457e090600090a35050565b60008281526006602090815260408083206001600160a01b038516845290915281205460ff16620002575760008381526006602090815260408083206001600160a01b03861684529091529020805460ff191660011790556200020e3390565b6001600160a01b0316826001600160a01b0316847f2f8788117e7eff1d82e926ec794901d17c78024a50270940304540a733656f0d60405160405180910390a45060016200025b565b5060005b92915050565b634e487b7160e01b600052604160045260246000fd5b80516001600160a01b03811681146200028f57600080fd5b919050565b60006020808385031215620002a857600080fd5b82516001600160401b0380821115620002c057600080fd5b818501915085601f830112620002d557600080fd5b815181811115620002ea57620002ea62000261565b8060051b604051601f19603f8301168101818110858211171562000312576200031262000261565b6040529182528482019250838101850191888311156200033157600080fd5b938501935b828510156200035a576200034a8562000277565b8452938501939285019262000336565b98975050505050505050565b600181811c908216806200037b57607f821691505b6020821081036200039c57634e487b7160e01b600052602260045260246000fd5b50919050565b601f821115620003f057600081815260208120601f850160051c81016020861015620003cb5750805b601f850160051c820191505b81811015620003ec57828155600101620003d7565b5050505b505050565b81516001600160401b0381111562000411576200041162000261565b620004298162000422845462000366565b84620003a2565b602080601f831160018114620004615760008415620004485750858301515b600019600386901b1c1916600185901b178555620003ec565b600085815260208120601f198616915b82811015620004925788860151825594840194600190910190840162000471565b5085821015620004b15787850151600019600388901b60f8161c191681555b5050505050600190811b01905550565b634e487b7160e01b600052603260045260246000fd5b600060018201620004f857634e487b7160e01b600052601160045260246000fd5b5060010190565b610eb4806200050f6000396000f3fe608060405234801561001057600080fd5b506004361061014d5760003560e01c8063715018a6116100c3578063a9059cbb1161007c578063a9059cbb146102b6578063d3fc9864146102c9578063d5391393146102dc578063d547741f14610303578063dd62ed3e14610316578063f2fde38b1461034f57600080fd5b8063715018a61461025d57806379cc6790146102655780638da5cb5b1461027857806391d148541461029357806395d89b41146102a6578063a217fddf146102ae57600080fd5b8063248a9ca311610115578063248a9ca3146101c75780632f2ff15d146101ea578063313ce567146101ff57806336568abe1461020e57806342966c681461022157806370a082311461023457600080fd5b806301ffc9a71461015257806306fdde031461017a578063095ea7b31461018f57806318160ddd146101a257806323b872dd146101b4575b600080fd5b610165610160366004610b8b565b610362565b60405190151581526020015b60405180910390f35b610182610399565b6040516101719190610c02565b61016561019d366004610c31565b61042b565b6002545b604051908152602001610171565b6101656101c2366004610c5b565b610443565b6101a66101d5366004610c97565b60009081526006602052604090206001015490565b6101fd6101f8366004610cb0565b610467565b005b60405160068152602001610171565b6101fd61021c366004610cb0565b610492565b6101fd61022f366004610c97565b6104ca565b6101a6610242366004610cdc565b6001600160a01b031660009081526020819052604090205490565b6101fd6104d7565b6101fd610273366004610c31565b6104eb565b6005546040516001600160a01b039091168152602001610171565b6101656102a1366004610cb0565b610504565b61018261052f565b6101a6600081565b6101656102c4366004610c31565b61053e565b6101fd6102d7366004610d0d565b61054c565b6101a67f9f2df0fed2c77648de5860a4cc508cd0818c85b8b8a1ab4ceeef8d981c8956a681565b6101fd610311366004610cb0565b610619565b6101a6610324366004610dd8565b6001600160a01b03918216600090815260016020908152604080832093909416825291909152205490565b6101fd61035d366004610cdc565b61063e565b60006001600160e01b03198216637965db0b60e01b148061039357506301ffc9a760e01b6001600160e01b03198316145b92915050565b6060600380546103a890610e02565b80601f01602080910402602001604051908101604052809291908181526020018280546103d490610e02565b80156104215780601f106103f657610100808354040283529160200191610421565b820191906000526020600020905b81548152906001019060200180831161040457829003601f168201915b5050505050905090565b600033610439818585610679565b5060019392505050565b600033610451858285610686565b61045c8585856106fe565b506001949350505050565b6000828152600660205260409020600101546104828161075d565b61048c8383610767565b50505050565b6001600160a01b03811633146104bb5760405163334bd91960e11b815260040160405180910390fd5b6104c582826107fb565b505050565b6104d43382610868565b50565b6104df61089e565b6104e960006108cb565b565b6104f6823383610686565b6105008282610868565b5050565b60009182526006602090815260408084206001600160a01b0393909316845291905290205460ff1690565b6060600480546103a890610e02565b6000336104398185856106fe565b6105767f9f2df0fed2c77648de5860a4cc508cd0818c85b8b8a1ab4ceeef8d981c8956a633610504565b6105c75760405162461bcd60e51b815260206004820152601d60248201527f4d7573742068617665206d696e74657220726f6c6520746f206d696e7400000060448201526064015b60405180910390fd5b6105d1838361091d565b826001600160a01b03167fe7cd4ce7f2a465edc730269a1305e8a48bad821e8fb7e152ec413829c01a53c4838360405161060c929190610e3c565b60405180910390a2505050565b6000828152600660205260409020600101546106348161075d565b61048c83836107fb565b61064661089e565b6001600160a01b03811661067057604051631e4fbdf760e01b8152600060048201526024016105be565b6104d4816108cb565b6104c58383836001610953565b6001600160a01b03838116600090815260016020908152604080832093861683529290522054600019811461048c57818110156106ef57604051637dc7a0d960e11b81526001600160a01b038416600482015260248101829052604481018390526064016105be565b61048c84848484036000610953565b6001600160a01b03831661072857604051634b637e8f60e11b8152600060048201526024016105be565b6001600160a01b0382166107525760405163ec442f0560e01b8152600060048201526024016105be565b6104c5838383610a28565b6104d48133610b52565b60006107738383610504565b6107f35760008381526006602090815260408083206001600160a01b03861684529091529020805460ff191660011790556107ab3390565b6001600160a01b0316826001600160a01b0316847f2f8788117e7eff1d82e926ec794901d17c78024a50270940304540a733656f0d60405160405180910390a4506001610393565b506000610393565b60006108078383610504565b156107f35760008381526006602090815260408083206001600160a01b0386168085529252808320805460ff1916905551339286917ff6391f5c32d9c69d2a47ea670b442974b53935d1edc7fd64eb21e047a839171b9190a4506001610393565b6001600160a01b03821661089257604051634b637e8f60e11b8152600060048201526024016105be565b61050082600083610a28565b6005546001600160a01b031633146104e95760405163118cdaa760e01b81523360048201526024016105be565b600580546001600160a01b038381166001600160a01b0319831681179093556040519116919082907f8be0079c531659141344cd1fd0a4f28419497f9722a3daafe3b4186f6b6457e090600090a35050565b6001600160a01b0382166109475760405163ec442f0560e01b8152600060048201526024016105be565b61050060008383610a28565b6001600160a01b03841661097d5760405163e602df0560e01b8152600060048201526024016105be565b6001600160a01b0383166109a757604051634a1406b160e11b8152600060048201526024016105be565b6001600160a01b038085166000908152600160209081526040808320938716835292905220829055801561048c57826001600160a01b0316846001600160a01b03167f8c5be1e5ebec7d5bd14f71427d1e84f3dd0314c0f7b2291e5b200ac8c7c3b92584604051610a1a91815260200190565b60405180910390a350505050565b6001600160a01b038316610a53578060026000828254610a489190610e5d565b90915550610ac59050565b6001600160a01b03831660009081526020819052604090205481811015610aa65760405163391434e360e21b81526001600160a01b038516600482015260248101829052604481018390526064016105be565b6001600160a01b03841660009081526020819052604090209082900390555b6001600160a01b038216610ae157600280548290039055610b00565b6001600160a01b03821660009081526020819052604090208054820190555b816001600160a01b0316836001600160a01b03167fddf252ad1be2c89b69c2b068fc378daa952ba7f163c4a11628f55a4df523b3ef83604051610b4591815260200190565b60405180910390a3505050565b610b5c8282610504565b6105005760405163e2517d3f60e01b81526001600160a01b0382166004820152602481018390526044016105be565b600060208284031215610b9d57600080fd5b81356001600160e01b031981168114610bb557600080fd5b9392505050565b6000815180845260005b81811015610be257602081850181015186830182015201610bc6565b506000602082860101526020601f19601f83011685010191505092915050565b602081526000610bb56020830184610bbc565b80356001600160a01b0381168114610c2c57600080fd5b919050565b60008060408385031215610c4457600080fd5b610c4d83610c15565b946020939093013593505050565b600080600060608486031215610c7057600080fd5b610c7984610c15565b9250610c8760208501610c15565b9150604084013590509250925092565b600060208284031215610ca957600080fd5b5035919050565b60008060408385031215610cc357600080fd5b82359150610cd360208401610c15565b90509250929050565b600060208284031215610cee57600080fd5b610bb582610c15565b634e487b7160e01b600052604160045260246000fd5b600080600060608486031215610d2257600080fd5b610d2b84610c15565b925060208401359150604084013567ffffffffffffffff80821115610d4f57600080fd5b818601915086601f830112610d6357600080fd5b813581811115610d7557610d75610cf7565b604051601f8201601f19908116603f01168101908382118183101715610d9d57610d9d610cf7565b81604052828152896020848701011115610db657600080fd5b8260208601602083013760006020848301015280955050505050509250925092565b60008060408385031215610deb57600080fd5b610df483610c15565b9150610cd360208401610c15565b600181811c90821680610e1657607f821691505b602082108103610e3657634e487b7160e01b600052602260045260246000fd5b50919050565b828152604060208201526000610e556040830184610bbc565b949350505050565b8082018082111561039357634e487b7160e01b600052601160045260246000fdfea2646970667358221220fbfcb7754ec0291a03661d3bbdabc03cca6aebe203a9538e18a70787e99d58cf64736f6c63430008140033",
    "linkReferences": {}
  },
  "methodIdentifiers": {
    "DEFAULT_ADMIN_ROLE()": "a217fddf",
    "MINTER_ROLE()": "d5391393",
    "allowance(address,address)": "dd62ed3e",
    "approve(address,uint256)": "095ea7b3",
    "balanceOf(address)": "70a08231",
    "burn(uint256)": "42966c68",
    "burnFrom(address,uint256)": "79cc6790",
    "decimals()": "313ce567",
    "getRoleAdmin(bytes32)": "248a9ca3",
    "grantRole(bytes32,address)": "2f2ff15d",
    "hasRole(bytes32,address)": "91d14854",
    "mint(address,uint256,string)": "d3fc9864",
    "name()": "06fdde03",
    "owner()": "8da5cb5b",
    "renounceOwnership()": "715018a6",
    "renounceRole(bytes32,address)": "36568abe",
    "revokeRole(bytes32,address)": "d547741f",
    "supportsInterface(bytes4)": "01ffc9a7",
    "symbol()": "95d89b41",
    "totalSupply()": "18160ddd",
    "transfer(address,uint256)": "a9059cbb",
    "transferFrom(address,address,uint256)": "23b872dd",
    "transferOwnership(address)": "f2fde38b"
  },
  "id": 0
}