{
  "abi": [
    {
      "inputs": [
        {
          "internalType": "address[]",
          "name": "admins",
          "type": "address[]"
        }
      ],
      "stateMutability": "nonpayable",
      "type": "constructor"
    },
    {
      "inputs": [],
      "name": "AccessControlBadConfirmation",
      "type": "error"
    },
    {
      "inputs": [
        {
          "internalType": "address",
          "name": "account",
          "type": "address"
        },
        {
          "internalType": "bytes32",
          "name": "neededRole",
          "type": "bytes32"
        }
      ],
      "name": "AccessControlUnauthorizedAccount",
      "type": "error"
    },
    {
      "inputs": [
        {
          "internalType": "address",
          "name": "spender",
          "type": "address"
        },
        {
          "internalType": "uint256",
          "name": "allowance",
          "type": "uint256"
        },
        {
          "internalType": "uint256",
          "name": "needed",
          "type": "uint256"
        }
      ],
      "name": "ERC20InsufficientAllowance",
      "type": "error"
    },
    {
      "inputs": [
        {
          "internalType": "address",
          "name": "sender",
          "type": "address"
        },
        {
          "internalType": "uint256",
          "name": "balance",
          "type": "uint256"
        },
        {
          "internalType": "uint256",
          "name": "needed",
          "type": "uint256"
        }
      ],
      "name": "ERC20InsufficientBalance",
      "type": "error"
    },
    {
      "inputs": [
        {
          "internalType": "address",
          "name": "approver",
          "type": "address"
        }
      ],
      "name": "ERC20InvalidApprover",
      "type": "error"
    },
    {
      "inputs": [
        {
          "internalType": "address",
          "name": "receiver",
          "type": "address"
        }
      ],
      "name": "ERC20InvalidReceiver",
      "type": "error"
    },
    {
      "inputs": [
        {
          "internalType": "address",
          "name": "sender",
          "type": "address"
        }
      ],
      "name": "ERC20InvalidSender",
      "type": "error"
    },
    {
      "inputs": [
        {
          "internalType": "address",
          "name": "spender",
          "type": "address"
        }
      ],
      "name": "ERC20InvalidSpender",
      "type": "error"
    },
    {
      "inputs": [
        {
          "internalType": "address",
          "name": "owner",
          "type": "address"
        }
      ],
      "name": "OwnableInvalidOwner",
      "type": "error"
    },
    {
      "inputs": [
        {
          "internalType": "address",
          "name": "account",
          "type": "address"
        }
      ],
      "name": "OwnableUnauthorizedAccount",
      "type": "error"
    },
    {
      "anonymous": false,
      "inputs": [
        {
          "indexed": true,
          "internalType": "address",
          "name": "owner",
          "type": "address"
        },
        {
          "indexed": true,
          "internalType": "address",
          "name": "spender",
          "type": "address"
        },
        {
          "indexed": false,
          "internalType": "uint256",
          "name": "value",
          "type": "uint256"
        }
      ],
      "name": "Approval",
      "type": "event"
    },
    {
      "anonymous": false,
      "inputs": [
        {
          "indexed": true,
          "internalType": "address",
          "name": "to",
          "type": "address"
        },
        {
          "indexed": false,
          "internalType": "uint256",
          "name": "amount",
          "type": "uint256"
        },
        {
          "indexed": false,
          "internalType": "string",
          "name": "description",
          "type": "string"
        }
      ],
      "name": "Minted",
      "type": "event"
    },
    {
      "anonymous": false,
      "inputs": [
        {
          "indexed": true,
          "internalType": "address",
          "name": "previousOwner",
          "type": "address"
        },
        {
          "indexed": true,
          "internalType": "address",
          "name": "newOwner",
          "type": "address"
        }
      ],
      "name": "OwnershipTransferred",
      "type": "event"
    },
    {
      "anonymous": false,
      "inputs": [
        {
          "indexed": true,
          "internalType": "bytes32",
          "name": "role",
          "type": "bytes32"
        },
        {
          "indexed": true,
          "internalType": "bytes32",
          "name": "previousAdminRole",
          "type": "bytes32"
        },
        {
          "indexed": true,
          "internalType": "bytes32",
          "name": "newAdminRole",
          "type": "bytes32"
        }
      ],
      "name": "RoleAdminChanged",
      "type": "event"
    },
    {
      "anonymous": false,
      "inputs": [
        {
          "indexed": true,
          "internalType": "bytes32",
          "name": "role",
          "type": "bytes32"
        },
        {
          "indexed": true,
          "internalType": "address",
          "name": "account",
          "type": "address"
        },
        {
          "indexed": true,
          "internalType": "address",
          "name": "sender",
          "type": "address"
        }
      ],
      "name": "RoleGranted",
      "type": "event"
    },
    {
      "anonymous": false,
      "inputs": [
        {
          "indexed": true,
          "internalType": "bytes32",
          "name": "role",
          "type": "bytes32"
        },
        {
          "indexed": true,
          "internalType": "address",
          "name": "account",
          "type": "address"
        },
        {
          "indexed": true,
          "internalType": "address",
          "name": "sender",
          "type": "address"
        }
      ],
      "name": "RoleRevoked",
      "type": "event"
    },
    {
      "anonymous": false,
      "inputs": [
        {
          "indexed": true,
          "internalType": "address",
          "name": "from",
          "type": "address"
        },
        {
          "indexed": true,
          "internalType": "address",
          "name": "to",
          "type": "address"
        },
        {
          "indexed": false,
          "internalType": "uint256",
          "name": "value",
          "type": "uint256"
        }
      ],
      "name": "Transfer",
      "type": "event"
    },
    {
      "inputs": [],
      "name": "DEFAULT_ADMIN_ROLE",
      "outputs": [
        {
          "internalType": "bytes32",
          "name": "",
          "type": "bytes32"
        }
      ],
      "stateMutability": "view",
      "type": "function"
    },
    {
      "inputs": [],
      "name": "MINTER_ROLE",
      "outputs": [
        {
          "internalType": "bytes32",
          "name": "",
          "type": "bytes32"
        }
      ],
      "stateMutability": "view",
      "type": "function"
    },
    {
      "inputs": [
        {
          "internalType": "address",
          "name": "owner",
          "type": "address"
        },
        {
          "internalType": "address",
          "name": "spender",
          "type": "address"
        }
      ],
      "name": "allowance",
      "outputs": [
        {
          "internalType": "uint256",
          "name": "",
          "type": "uint256"
        }
      ],
      "stateMutability": "view",
      "type": "function"
    },
    {
      "inputs": [
        {
          "internalType": "address",
          "name": "spender",
          "type": "address"
        },
        {
          "internalType": "uint256",
          "name": "value",
          "type": "uint256"
        }
      ],
      "name": "approve",
      "outputs": [
        {
          "internalType": "bool",
          "name": "",
          "type": "bool"
        }
      ],
      "stateMutability": "nonpayable",
      "type": "function"
    },
    {
      "inputs": [
        {
          "internalType": "address",
          "name": "account",
          "type": "address"
        }
      ],
      "name": "balanceAfterDemurrage",
      "outputs": [
        {
          "internalType": "uint256",
          "name": "balance",
          "type": "uint256"
        }
      ],
      "stateMutability": "view",
      "type": "function"
    },
    {
      "inputs": [
        {
          "internalType": "address",
          "name": "account",
          "type": "address"
        }
      ],
      "name": "balanceOf",
      "outputs": [
        {
          "internalType": "uint256",
          "name": "",
          "type": "uint256"
        }
      ],
      "stateMutability": "view",
      "type": "function"
    },
    {
      "inputs": [
        {
          "internalType": "uint256",
          "name": "value",
          "type": "uint256"
        }
      ],
      "name": "burn",
      "outputs": [],
      "stateMutability": "nonpayable",
      "type": "function"
    },
    {
      "inputs": [
        {
          "internalType": "address",
          "name": "account",
          "type": "address"
        },
        {
          "internalType": "uint256",
          "name": "value",
          "type": "uint256"
        }
      ],
      "name": "burnFrom",
      "outputs": [],
      "stateMutability": "nonpayable",
      "type": "function"
    },
    {
      "inputs": [],
      "name": "decimals",
      "outputs": [
        {
          "internalType": "uint8",
          "name": "",
          "type": "uint8"
        }
      ],
      "stateMutability": "view",
      "type": "function"
    },
    {
      "inputs": [
        {
          "internalType": "address",
          "name": "account",
          "type": "address"
        }
      ],
      "name": "getDemurrage",
      "outputs": [
        {
          "internalType": "uint256",
          "name": "demurrage",
          "type": "uint256"
        }
      ],
      "stateMutability": "view",
      "type": "function"
    },
    {
      "inputs": [
        {
          "internalType": "bytes32",
          "name": "role",
          "type": "bytes32"
        }
      ],
      "name": "getRoleAdmin",
      "outputs": [
        {
          "internalType": "bytes32",
          "name": "",
          "type": "bytes32"
        }
      ],
      "stateMutability": "view",
      "type": "function"
    },
    {
      "inputs": [
        {
          "internalType": "bytes32",
          "name": "role",
          "type": "bytes32"
        },
        {
          "internalType": "address",
          "name": "account",
          "type": "address"
        }
      ],
      "name": "grantRole",
      "outputs": [],
      "stateMutability": "nonpayable",
      "type": "function"
    },
    {
      "inputs": [
        {
          "internalType": "bytes32",
          "name": "role",
          "type": "bytes32"
        },
        {
          "internalType": "address",
          "name": "account",
          "type": "address"
        }
      ],
      "name": "hasRole",
      "outputs": [
        {
          "internalType": "bool",
          "name": "",
          "type": "bool"
        }
      ],
      "stateMutability": "view",
      "type": "function"
    },
    {
      "inputs": [
        {
          "internalType": "address",
          "name": "",
          "type": "address"
        }
      ],
      "name": "lastActivity",
      "outputs": [
        {
          "internalType": "uint256",
          "name": "",
          "type": "uint256"
        }
      ],
      "stateMutability": "view",
      "type": "function"
    },
    {
      "inputs": [
        {
          "internalType": "uint256",
          "name": "top",
          "type": "uint256"
        },
        {
          "internalType": "uint256",
          "name": "dur",
          "type": "uint256"
        }
      ],
      "name": "linearDecrease",
      "outputs": [
        {
          "internalType": "uint256",
          "name": "",
          "type": "uint256"
        }
      ],
      "stateMutability": "view",
      "type": "function"
    },
    {
      "inputs": [
        {
          "internalType": "address",
          "name": "to",
          "type": "address"
        },
        {
          "internalType": "uint256",
          "name": "amount",
          "type": "uint256"
        },
        {
          "internalType": "string",
          "name": "description",
          "type": "string"
        }
      ],
      "name": "mint",
      "outputs": [],
      "stateMutability": "nonpayable",
      "type": "function"
    },
    {
      "inputs": [],
      "name": "name",
      "outputs": [
        {
          "internalType": "string",
          "name": "",
          "type": "string"
        }
      ],
      "stateMutability": "view",
      "type": "function"
    },
    {
      "inputs": [],
      "name": "owner",
      "outputs": [
        {
          "internalType": "address",
          "name": "",
          "type": "address"
        }
      ],
      "stateMutability": "view",
      "type": "function"
    },
    {
      "inputs": [],
      "name": "renounceOwnership",
      "outputs": [],
      "stateMutability": "nonpayable",
      "type": "function"
    },
    {
      "inputs": [
        {
          "internalType": "bytes32",
          "name": "role",
          "type": "bytes32"
        },
        {
          "internalType": "address",
          "name": "callerConfirmation",
          "type": "address"
        }
      ],
      "name": "renounceRole",
      "outputs": [],
      "stateMutability": "nonpayable",
      "type": "function"
    },
    {
      "inputs": [
        {
          "internalType": "bytes32",
          "name": "role",
          "type": "bytes32"
        },
        {
          "internalType": "address",
          "name": "account",
          "type": "address"
        }
      ],
      "name": "revokeRole",
      "outputs": [],
      "stateMutability": "nonpayable",
      "type": "function"
    },
    {
      "inputs": [
        {
          "internalType": "uint256",
          "name": "tau_",
          "type": "uint256"
        }
      ],
      "name": "setTau",
      "outputs": [],
      "stateMutability": "nonpayable",
      "type": "function"
    },
    {
      "inputs": [
        {
          "internalType": "bytes4",
          "name": "interfaceId",
          "type": "bytes4"
        }
      ],
      "name": "supportsInterface",
      "outputs": [
        {
          "internalType": "bool",
          "name": "",
          "type": "bool"
        }
      ],
      "stateMutability": "view",
      "type": "function"
    },
    {
      "inputs": [],
      "name": "symbol",
      "outputs": [
        {
          "internalType": "string",
          "name": "",
          "type": "string"
        }
      ],
      "stateMutability": "view",
      "type": "function"
    },
    {
      "inputs": [],
      "name": "tau",
      "outputs": [
        {
          "internalType": "uint256",
          "name": "",
          "type": "uint256"
        }
      ],
      "stateMutability": "view",
      "type": "function"
    },
    {
      "inputs": [
        {
          "internalType": "address",
          "name": "account",
          "type": "address"
        }
      ],
      "name": "tax",
      "outputs": [],
      "stateMutability": "nonpayable",
      "type": "function"
    },
    {
      "inputs": [],
      "name": "totalSupply",
      "outputs": [
        {
          "internalType": "uint256",
          "name": "",
          "type": "uint256"
        }
      ],
      "stateMutability": "view",
      "type": "function"
    },
    {
      "inputs": [
        {
          "internalType": "address",
          "name": "to",
          "type": "address"
        },
        {
          "internalType": "uint256",
          "name": "value",
          "type": "uint256"
        }
      ],
      "name": "transfer",
      "outputs": [
        {
          "internalType": "bool",
          "name": "",
          "type": "bool"
        }
      ],
      "stateMutability": "nonpayable",
      "type": "function"
    },
    {
      "inputs": [
        {
          "internalType": "address",
          "name": "from",
          "type": "address"
        },
        {
          "internalType": "address",
          "name": "to",
          "type": "address"
        },
        {
          "internalType": "uint256",
          "name": "value",
          "type": "uint256"
        }
      ],
      "name": "transferFrom",
      "outputs": [
        {
          "internalType": "bool",
          "name": "",
          "type": "bool"
        }
      ],
      "stateMutability": "nonpayable",
      "type": "function"
    },
    {
      "inputs": [
        {
          "internalType": "address",
          "name": "newOwner",
          "type": "address"
        }
      ],
      "name": "transferOwnership",
      "outputs": [],
      "stateMutability": "nonpayable",
      "type": "function"
    }
  ],
  "bytecode": {
    "object": "0x60806040526303c267006007553480156200001957600080fd5b5060405162001838380380620018388339810160408190526200003c916200029c565b336040518060400160405280600d81526020016c21393ab9b9b2b6399021b7b4b760991b8152506040518060400160405280600381526020016210961360ea1b8152508160039081620000909190620003fd565b5060046200009f8282620003fd565b5050506001600160a01b038116620000d157604051631e4fbdf760e01b81526000600482015260240160405180910390fd5b620000dc8162000164565b50620000ea600033620001b6565b5060005b81518110156200015c57620001467f9f2df0fed2c77648de5860a4cc508cd0818c85b8b8a1ab4ceeef8d981c8956a6838381518110620001325762000132620004c9565b6020026020010151620001b660201b60201c565b50806200015381620004df565b915050620000ee565b505062000507565b600580546001600160a01b038381166001600160a01b0319831681179093556040519116919082907f8be0079c531659141344cd1fd0a4f28419497f9722a3daafe3b4186f6b6457e090600090a35050565b60008281526006602090815260408083206001600160a01b038516845290915281205460ff166200025f5760008381526006602090815260408083206001600160a01b03861684529091529020805460ff19166001179055620002163390565b6001600160a01b0316826001600160a01b0316847f2f8788117e7eff1d82e926ec794901d17c78024a50270940304540a733656f0d60405160405180910390a450600162000263565b5060005b92915050565b634e487b7160e01b600052604160045260246000fd5b80516001600160a01b03811681146200029757600080fd5b919050565b60006020808385031215620002b057600080fd5b82516001600160401b0380821115620002c857600080fd5b818501915085601f830112620002dd57600080fd5b815181811115620002f257620002f262000269565b8060051b604051601f19603f830116810181811085821117156200031a576200031a62000269565b6040529182528482019250838101850191888311156200033957600080fd5b938501935b82851015620003625762000352856200027f565b845293850193928501926200033e565b98975050505050505050565b600181811c908216806200038357607f821691505b602082108103620003a457634e487b7160e01b600052602260045260246000fd5b50919050565b601f821115620003f857600081815260208120601f850160051c81016020861015620003d35750805b601f850160051c820191505b81811015620003f457828155600101620003df565b5050505b505050565b81516001600160401b0381111562000419576200041962000269565b62000431816200042a84546200036e565b84620003aa565b602080601f831160018114620004695760008415620004505750858301515b600019600386901b1c1916600185901b178555620003f4565b600085815260208120601f198616915b828110156200049a5788860151825594840194600190910190840162000479565b5085821015620004b95787850151600019600388901b60f8161c191681555b5050505050600190811b01905550565b634e487b7160e01b600052603260045260246000fd5b6000600182016200050057634e487b7160e01b600052601160045260246000fd5b5060010190565b61132180620005176000396000f3fe608060405234801561001057600080fd5b50600436106101da5760003560e01c806379cc679011610104578063cd50de86116100a2578063d547741f11610071578063d547741f146103fc578063dd62ed3e1461040f578063f07e96b314610448578063f2fde38b1461046857600080fd5b8063cd50de86146103a6578063cfc4af55146103b9578063d3fc9864146103c2578063d5391393146103d557600080fd5b806395d89b41116100de57806395d89b4114610370578063a217fddf14610378578063a9059cbb14610380578063cbcc76121461039357600080fd5b806379cc67901461032f5780638da5cb5b1461034257806391d148541461035d57600080fd5b80632f2ff15d1161017c57806370a082311161014b57806370a08231146102d8578063715018a6146103015780637866cdd8146103095780637899d80f1461031c57600080fd5b80632f2ff15d1461028e578063313ce567146102a357806336568abe146102b257806342966c68146102c557600080fd5b8063095ea7b3116101b8578063095ea7b31461023d57806318160ddd1461025057806323b872dd14610258578063248a9ca31461026b57600080fd5b806301ffc9a7146101df578063064e55d01461020757806306fdde0314610228575b600080fd5b6101f26101ed366004610f42565b61047b565b60405190151581526020015b60405180910390f35b61021a610215366004610f88565b6104b2565b6040519081526020016101fe565b6102306104eb565b6040516101fe9190610fe9565b6101f261024b366004610ffc565b61057d565b60025461021a565b6101f2610266366004611026565b610595565b61021a610279366004611062565b60009081526006602052604090206001015490565b6102a161029c36600461107b565b610645565b005b604051600681526020016101fe565b6102a16102c036600461107b565b610670565b6102a16102d3366004611062565b6106a8565b61021a6102e6366004610f88565b6001600160a01b031660009081526020819052604090205490565b6102a16106b5565b61021a6103173660046110a7565b6106c9565b6102a161032a366004610f88565b610713565b6102a161033d366004610ffc565b610742565b6005546040516001600160a01b0390911681526020016101fe565b6101f261036b36600461107b565b610757565b610230610782565b61021a600081565b6101f261038e366004610ffc565b610791565b61021a6103a1366004610f88565b610825565b6102a16103b4366004611062565b610861565b61021a60075481565b6102a16103d03660046110df565b61087e565b61021a7f9f2df0fed2c77648de5860a4cc508cd0818c85b8b8a1ab4ceeef8d981c8956a681565b6102a161040a36600461107b565b610961565b61021a61041d3660046111aa565b6001600160a01b03918216600090815260016020908152604080832093909416825291909152205490565b61021a610456366004610f88565b60086020526000908152604090205481565b6102a1610476366004610f88565b610986565b60006001600160e01b03198216637965db0b60e01b14806104ac57506301ffc9a760e01b6001600160e01b03198316145b92915050565b6001600160a01b0381166000908152602081815260408083205460089092528220546104e490829061031790426111ea565b9392505050565b6060600380546104fa906111fd565b80601f0160208091040260200160405190810160405280929190818152602001828054610526906111fd565b80156105735780601f1061054857610100808354040283529160200191610573565b820191906000526020600020905b81548152906001019060200180831161055657829003601f168201915b5050505050905090565b60003361058b8185856109c1565b5060019392505050565b6000336105a38582856109ce565b60006105ae86610825565b6001600160a01b038716600090815260086020526040902042905590506105e7866105e16005546001600160a01b031690565b83610a46565b83610607836001600160a01b031660009081526020819052604090205490565b101561062e5760405162461bcd60e51b815260040161062590611237565b60405180910390fd5b610639868686610a46565b50600195945050505050565b60008281526006602052604090206001015461066081610aa5565b61066a8383610aaf565b50505050565b6001600160a01b03811633146106995760405163334bd91960e11b815260040160405180910390fd5b6106a38282610b43565b505050565b6106b23382610bb0565b50565b6106bd610be6565b6106c76000610c13565b565b600060075482106106dc575060006104ac565b6007546104e49084906107046106f286836111ea565b6b033b2e3c9fd0803ce8000000610c65565b61070e919061127e565b610c92565b61071b610be6565b600061072682610825565b905061073e826105e16005546001600160a01b031690565b5050565b61074d8233836109ce565b61073e8282610bb0565b60009182526006602090815260408084206001600160a01b0393909316845291905290205460ff1690565b6060600480546104fa906111fd565b6000338161079e82610825565b6001600160a01b038316600090815260086020526040902042905590506107d1826105e16005546001600160a01b031690565b836107f1836001600160a01b031660009081526020819052604090205490565b101561080f5760405162461bcd60e51b815260040161062590611237565b61081a828686610a46565b506001949350505050565b6001600160a01b03811660009081526020818152604080832054600890925282205461085790829061031790426111ea565b6104e490826111ea565b610869610be6565b62278d0081101561087957600080fd5b600755565b6108a87f9f2df0fed2c77648de5860a4cc508cd0818c85b8b8a1ab4ceeef8d981c8956a633610757565b6108f45760405162461bcd60e51b815260206004820152601d60248201527f4d7573742068617665206d696e74657220726f6c6520746f206d696e740000006044820152606401610625565b6001600160a01b03831660009081526008602052604090204290556109198383610cd4565b826001600160a01b03167fe7cd4ce7f2a465edc730269a1305e8a48bad821e8fb7e152ec413829c01a53c483836040516109549291906112a0565b60405180910390a2505050565b60008281526006602052604090206001015461097c81610aa5565b61066a8383610b43565b61098e610be6565b6001600160a01b0381166109b857604051631e4fbdf760e01b815260006004820152602401610625565b6106b281610c13565b6106a38383836001610d0a565b6001600160a01b03838116600090815260016020908152604080832093861683529290522054600019811461066a5781811015610a3757604051637dc7a0d960e11b81526001600160a01b03841660048201526024810182905260448101839052606401610625565b61066a84848484036000610d0a565b6001600160a01b038316610a7057604051634b637e8f60e11b815260006004820152602401610625565b6001600160a01b038216610a9a5760405163ec442f0560e01b815260006004820152602401610625565b6106a3838383610ddf565b6106b28133610f09565b6000610abb8383610757565b610b3b5760008381526006602090815260408083206001600160a01b03861684529091529020805460ff19166001179055610af33390565b6001600160a01b0316826001600160a01b0316847f2f8788117e7eff1d82e926ec794901d17c78024a50270940304540a733656f0d60405160405180910390a45060016104ac565b5060006104ac565b6000610b4f8383610757565b15610b3b5760008381526006602090815260408083206001600160a01b0386168085529252808320805460ff1916905551339286917ff6391f5c32d9c69d2a47ea670b442974b53935d1edc7fd64eb21e047a839171b9190a45060016104ac565b6001600160a01b038216610bda57604051634b637e8f60e11b815260006004820152602401610625565b61073e82600083610ddf565b6005546001600160a01b031633146106c75760405163118cdaa760e01b8152336004820152602401610625565b600580546001600160a01b038381166001600160a01b0319831681179093556040519116919082907f8be0079c531659141344cd1fd0a4f28419497f9722a3daafe3b4186f6b6457e090600090a35050565b6000811580610c8957508282610c7b81836112c1565b9250610c87908361127e565b145b6104ac57600080fd5b6000610c9e82846112c1565b9050811580610cb5575082610cb3838361127e565b145b610cbe57600080fd5b6104e46b033b2e3c9fd0803ce80000008261127e565b6001600160a01b038216610cfe5760405163ec442f0560e01b815260006004820152602401610625565b61073e60008383610ddf565b6001600160a01b038416610d345760405163e602df0560e01b815260006004820152602401610625565b6001600160a01b038316610d5e57604051634a1406b160e11b815260006004820152602401610625565b6001600160a01b038085166000908152600160209081526040808320938716835292905220829055801561066a57826001600160a01b0316846001600160a01b03167f8c5be1e5ebec7d5bd14f71427d1e84f3dd0314c0f7b2291e5b200ac8c7c3b92584604051610dd191815260200190565b60405180910390a350505050565b6001600160a01b038316610e0a578060026000828254610dff91906112d8565b90915550610e7c9050565b6001600160a01b03831660009081526020819052604090205481811015610e5d5760405163391434e360e21b81526001600160a01b03851660048201526024810182905260448101839052606401610625565b6001600160a01b03841660009081526020819052604090209082900390555b6001600160a01b038216610e9857600280548290039055610eb7565b6001600160a01b03821660009081526020819052604090208054820190555b816001600160a01b0316836001600160a01b03167fddf252ad1be2c89b69c2b068fc378daa952ba7f163c4a11628f55a4df523b3ef83604051610efc91815260200190565b60405180910390a3505050565b610f138282610757565b61073e5760405163e2517d3f60e01b81526001600160a01b038216600482015260248101839052604401610625565b600060208284031215610f5457600080fd5b81356001600160e01b0319811681146104e457600080fd5b80356001600160a01b0381168114610f8357600080fd5b919050565b600060208284031215610f9a57600080fd5b6104e482610f6c565b6000815180845260005b81811015610fc957602081850181015186830182015201610fad565b506000602082860101526020601f19601f83011685010191505092915050565b6020815260006104e46020830184610fa3565b6000806040838503121561100f57600080fd5b61101883610f6c565b946020939093013593505050565b60008060006060848603121561103b57600080fd5b61104484610f6c565b925061105260208501610f6c565b9150604084013590509250925092565b60006020828403121561107457600080fd5b5035919050565b6000806040838503121561108e57600080fd5b8235915061109e60208401610f6c565b90509250929050565b600080604083850312156110ba57600080fd5b50508035926020909101359150565b634e487b7160e01b600052604160045260246000fd5b6000806000606084860312156110f457600080fd5b6110fd84610f6c565b925060208401359150604084013567ffffffffffffffff8082111561112157600080fd5b818601915086601f83011261113557600080fd5b813581811115611147576111476110c9565b604051601f8201601f19908116603f0116810190838211818310171561116f5761116f6110c9565b8160405282815289602084870101111561118857600080fd5b8260208601602083013760006020848301015280955050505050509250925092565b600080604083850312156111bd57600080fd5b6111c683610f6c565b915061109e60208401610f6c565b634e487b7160e01b600052601160045260246000fd5b818103818111156104ac576104ac6111d4565b600181811c9082168061121157607f821691505b60208210810361123157634e487b7160e01b600052602260045260246000fd5b50919050565b60208082526027908201527f4e6f7420656e6f7567682062616c616e63652c20636865636b20666f722064656040820152666d75727261676560c81b606082015260800190565b60008261129b57634e487b7160e01b600052601260045260246000fd5b500490565b8281526040602082015260006112b96040830184610fa3565b949350505050565b80820281158282048414176104ac576104ac6111d4565b808201808211156104ac576104ac6111d456fea264697066735822122081cd822d39c189670ff832aeb5fe3cb9d1ce1146efec7fcbd2c59f359f2b262764736f6c63430008140033",
    "linkReferences": {}
  },
  "methodIdentifiers": {
    "DEFAULT_ADMIN_ROLE()": "a217fddf",
    "MINTER_ROLE()": "d5391393",
    "allowance(address,address)": "dd62ed3e",
    "approve(address,uint256)": "095ea7b3",
    "balanceAfterDemurrage(address)": "064e55d0",
    "balanceOf(address)": "70a08231",
    "burn(uint256)": "42966c68",
    "burnFrom(address,uint256)": "79cc6790",
    "decimals()": "313ce567",
    "getDemurrage(address)": "cbcc7612",
    "getRoleAdmin(bytes32)": "248a9ca3",
    "grantRole(bytes32,address)": "2f2ff15d",
    "hasRole(bytes32,address)": "91d14854",
    "lastActivity(address)": "f07e96b3",
    "linearDecrease(uint256,uint256)": "7866cdd8",
    "mint(address,uint256,string)": "d3fc9864",
    "name()": "06fdde03",
    "owner()": "8da5cb5b",
    "renounceOwnership()": "715018a6",
    "renounceRole(bytes32,address)": "36568abe",
    "revokeRole(bytes32,address)": "d547741f",
    "setTau(uint256)": "cd50de86",
    "supportsInterface(bytes4)": "01ffc9a7",
    "symbol()": "95d89b41",
    "tau()": "cfc4af55",
    "tax(address)": "7899d80f",
    "totalSupply()": "18160ddd",
    "transfer(address,uint256)": "a9059cbb",
    "transferFrom(address,address,uint256)": "23b872dd",
    "transferOwnership(address)": "f2fde38b"
  },
  "id": 0
}