{
  "abi": [
    {
      "inputs": [
        {
          "internalType": "address[]",
          "name": "admins",
          "type": "address[]"
        }
      ],
      "stateMutability": "nonpayable",
      "type": "constructor"
    },
    {
      "inputs": [],
      "name": "AccessControlBadConfirmation",
      "type": "error"
    },
    {
      "inputs": [
        {
          "internalType": "address",
          "name": "account",
          "type": "address"
        },
        {
          "internalType": "bytes32",
          "name": "neededRole",
          "type": "bytes32"
        }
      ],
      "name": "AccessControlUnauthorizedAccount",
      "type": "error"
    },
    {
      "inputs": [
        {
          "internalType": "address",
          "name": "spender",
          "type": "address"
        },
        {
          "internalType": "uint256",
          "name": "allowance",
          "type": "uint256"
        },
        {
          "internalType": "uint256",
          "name": "needed",
          "type": "uint256"
        }
      ],
      "name": "ERC20InsufficientAllowance",
      "type": "error"
    },
    {
      "inputs": [
        {
          "internalType": "address",
          "name": "sender",
          "type": "address"
        },
        {
          "internalType": "uint256",
          "name": "balance",
          "type": "uint256"
        },
        {
          "internalType": "uint256",
          "name": "needed",
          "type": "uint256"
        }
      ],
      "name": "ERC20InsufficientBalance",
      "type": "error"
    },
    {
      "inputs": [
        {
          "internalType": "address",
          "name": "approver",
          "type": "address"
        }
      ],
      "name": "ERC20InvalidApprover",
      "type": "error"
    },
    {
      "inputs": [
        {
          "internalType": "address",
          "name": "receiver",
          "type": "address"
        }
      ],
      "name": "ERC20InvalidReceiver",
      "type": "error"
    },
    {
      "inputs": [
        {
          "internalType": "address",
          "name": "sender",
          "type": "address"
        }
      ],
      "name": "ERC20InvalidSender",
      "type": "error"
    },
    {
      "inputs": [
        {
          "internalType": "address",
          "name": "spender",
          "type": "address"
        }
      ],
      "name": "ERC20InvalidSpender",
      "type": "error"
    },
    {
      "inputs": [
        {
          "internalType": "address",
          "name": "owner",
          "type": "address"
        }
      ],
      "name": "OwnableInvalidOwner",
      "type": "error"
    },
    {
      "inputs": [
        {
          "internalType": "address",
          "name": "account",
          "type": "address"
        }
      ],
      "name": "OwnableUnauthorizedAccount",
      "type": "error"
    },
    {
      "anonymous": false,
      "inputs": [
        {
          "indexed": true,
          "internalType": "address",
          "name": "owner",
          "type": "address"
        },
        {
          "indexed": true,
          "internalType": "address",
          "name": "spender",
          "type": "address"
        },
        {
          "indexed": false,
          "internalType": "uint256",
          "name": "value",
          "type": "uint256"
        }
      ],
      "name": "Approval",
      "type": "event"
    },
    {
      "anonymous": false,
      "inputs": [
        {
          "indexed": true,
          "internalType": "address",
          "name": "to",
          "type": "address"
        },
        {
          "indexed": false,
          "internalType": "uint256",
          "name": "amount",
          "type": "uint256"
        },
        {
          "indexed": false,
          "internalType": "string",
          "name": "description",
          "type": "string"
        }
      ],
      "name": "Minted",
      "type": "event"
    },
    {
      "anonymous": false,
      "inputs": [
        {
          "indexed": true,
          "internalType": "address",
          "name": "previousOwner",
          "type": "address"
        },
        {
          "indexed": true,
          "internalType": "address",
          "name": "newOwner",
          "type": "address"
        }
      ],
      "name": "OwnershipTransferred",
      "type": "event"
    },
    {
      "anonymous": false,
      "inputs": [
        {
          "indexed": true,
          "internalType": "bytes32",
          "name": "role",
          "type": "bytes32"
        },
        {
          "indexed": true,
          "internalType": "bytes32",
          "name": "previousAdminRole",
          "type": "bytes32"
        },
        {
          "indexed": true,
          "internalType": "bytes32",
          "name": "newAdminRole",
          "type": "bytes32"
        }
      ],
      "name": "RoleAdminChanged",
      "type": "event"
    },
    {
      "anonymous": false,
      "inputs": [
        {
          "indexed": true,
          "internalType": "bytes32",
          "name": "role",
          "type": "bytes32"
        },
        {
          "indexed": true,
          "internalType": "address",
          "name": "account",
          "type": "address"
        },
        {
          "indexed": true,
          "internalType": "address",
          "name": "sender",
          "type": "address"
        }
      ],
      "name": "RoleGranted",
      "type": "event"
    },
    {
      "anonymous": false,
      "inputs": [
        {
          "indexed": true,
          "internalType": "bytes32",
          "name": "role",
          "type": "bytes32"
        },
        {
          "indexed": true,
          "internalType": "address",
          "name": "account",
          "type": "address"
        },
        {
          "indexed": true,
          "internalType": "address",
          "name": "sender",
          "type": "address"
        }
      ],
      "name": "RoleRevoked",
      "type": "event"
    },
    {
      "anonymous": false,
      "inputs": [
        {
          "indexed": true,
          "internalType": "address",
          "name": "from",
          "type": "address"
        },
        {
          "indexed": true,
          "internalType": "address",
          "name": "to",
          "type": "address"
        },
        {
          "indexed": false,
          "internalType": "uint256",
          "name": "value",
          "type": "uint256"
        }
      ],
      "name": "Transfer",
      "type": "event"
    },
    {
      "inputs": [],
      "name": "DEFAULT_ADMIN_ROLE",
      "outputs": [
        {
          "internalType": "bytes32",
          "name": "",
          "type": "bytes32"
        }
      ],
      "stateMutability": "view",
      "type": "function"
    },
    {
      "inputs": [],
      "name": "MINTER_ROLE",
      "outputs": [
        {
          "internalType": "bytes32",
          "name": "",
          "type": "bytes32"
        }
      ],
      "stateMutability": "view",
      "type": "function"
    },
    {
      "inputs": [
        {
          "internalType": "address",
          "name": "owner",
          "type": "address"
        },
        {
          "internalType": "address",
          "name": "spender",
          "type": "address"
        }
      ],
      "name": "allowance",
      "outputs": [
        {
          "internalType": "uint256",
          "name": "",
          "type": "uint256"
        }
      ],
      "stateMutability": "view",
      "type": "function"
    },
    {
      "inputs": [
        {
          "internalType": "address",
          "name": "spender",
          "type": "address"
        },
        {
          "internalType": "uint256",
          "name": "value",
          "type": "uint256"
        }
      ],
      "name": "approve",
      "outputs": [
        {
          "internalType": "bool",
          "name": "",
          "type": "bool"
        }
      ],
      "stateMutability": "nonpayable",
      "type": "function"
    },
    {
      "inputs": [
        {
          "internalType": "address",
          "name": "account",
          "type": "address"
        }
      ],
      "name": "balanceAfterDemurrage",
      "outputs": [
        {
          "internalType": "uint256",
          "name": "balance",
          "type": "uint256"
        }
      ],
      "stateMutability": "view",
      "type": "function"
    },
    {
      "inputs": [
        {
          "internalType": "address",
          "name": "account",
          "type": "address"
        }
      ],
      "name": "balanceOf",
      "outputs": [
        {
          "internalType": "uint256",
          "name": "",
          "type": "uint256"
        }
      ],
      "stateMutability": "view",
      "type": "function"
    },
    {
      "inputs": [
        {
          "internalType": "uint256",
          "name": "value",
          "type": "uint256"
        }
      ],
      "name": "burn",
      "outputs": [],
      "stateMutability": "nonpayable",
      "type": "function"
    },
    {
      "inputs": [
        {
          "internalType": "address",
          "name": "account",
          "type": "address"
        },
        {
          "internalType": "uint256",
          "name": "value",
          "type": "uint256"
        }
      ],
      "name": "burnFrom",
      "outputs": [],
      "stateMutability": "nonpayable",
      "type": "function"
    },
    {
      "inputs": [],
      "name": "decimals",
      "outputs": [
        {
          "internalType": "uint8",
          "name": "",
          "type": "uint8"
        }
      ],
      "stateMutability": "view",
      "type": "function"
    },
    {
      "inputs": [],
      "name": "decreaseFactor",
      "outputs": [
        {
          "internalType": "uint256",
          "name": "",
          "type": "uint256"
        }
      ],
      "stateMutability": "view",
      "type": "function"
    },
    {
      "inputs": [
        {
          "internalType": "address",
          "name": "account",
          "type": "address"
        }
      ],
      "name": "getDemurrage",
      "outputs": [
        {
          "internalType": "uint256",
          "name": "demurrage",
          "type": "uint256"
        }
      ],
      "stateMutability": "view",
      "type": "function"
    },
    {
      "inputs": [
        {
          "internalType": "bytes32",
          "name": "role",
          "type": "bytes32"
        }
      ],
      "name": "getRoleAdmin",
      "outputs": [
        {
          "internalType": "bytes32",
          "name": "",
          "type": "bytes32"
        }
      ],
      "stateMutability": "view",
      "type": "function"
    },
    {
      "inputs": [
        {
          "internalType": "bytes32",
          "name": "role",
          "type": "bytes32"
        },
        {
          "internalType": "address",
          "name": "account",
          "type": "address"
        }
      ],
      "name": "grantRole",
      "outputs": [],
      "stateMutability": "nonpayable",
      "type": "function"
    },
    {
      "inputs": [
        {
          "internalType": "bytes32",
          "name": "role",
          "type": "bytes32"
        },
        {
          "internalType": "address",
          "name": "account",
          "type": "address"
        }
      ],
      "name": "hasRole",
      "outputs": [
        {
          "internalType": "bool",
          "name": "",
          "type": "bool"
        }
      ],
      "stateMutability": "view",
      "type": "function"
    },
    {
      "inputs": [
        {
          "internalType": "address",
          "name": "",
          "type": "address"
        }
      ],
      "name": "lastActivity",
      "outputs": [
        {
          "internalType": "uint256",
          "name": "",
          "type": "uint256"
        }
      ],
      "stateMutability": "view",
      "type": "function"
    },
    {
      "inputs": [
        {
          "internalType": "uint256",
          "name": "top",
          "type": "uint256"
        },
        {
          "internalType": "uint256",
          "name": "dur",
          "type": "uint256"
        }
      ],
      "name": "linearDecrease",
      "outputs": [
        {
          "internalType": "uint256",
          "name": "",
          "type": "uint256"
        }
      ],
      "stateMutability": "view",
      "type": "function"
    },
    {
      "inputs": [
        {
          "internalType": "address",
          "name": "to",
          "type": "address"
        },
        {
          "internalType": "uint256",
          "name": "amount",
          "type": "uint256"
        },
        {
          "internalType": "string",
          "name": "description",
          "type": "string"
        }
      ],
      "name": "mint",
      "outputs": [],
      "stateMutability": "nonpayable",
      "type": "function"
    },
    {
      "inputs": [],
      "name": "name",
      "outputs": [
        {
          "internalType": "string",
          "name": "",
          "type": "string"
        }
      ],
      "stateMutability": "view",
      "type": "function"
    },
    {
      "inputs": [],
      "name": "owner",
      "outputs": [
        {
          "internalType": "address",
          "name": "",
          "type": "address"
        }
      ],
      "stateMutability": "view",
      "type": "function"
    },
    {
      "inputs": [],
      "name": "renounceOwnership",
      "outputs": [],
      "stateMutability": "nonpayable",
      "type": "function"
    },
    {
      "inputs": [
        {
          "internalType": "bytes32",
          "name": "role",
          "type": "bytes32"
        },
        {
          "internalType": "address",
          "name": "callerConfirmation",
          "type": "address"
        }
      ],
      "name": "renounceRole",
      "outputs": [],
      "stateMutability": "nonpayable",
      "type": "function"
    },
    {
      "inputs": [
        {
          "internalType": "bytes32",
          "name": "role",
          "type": "bytes32"
        },
        {
          "internalType": "address",
          "name": "account",
          "type": "address"
        }
      ],
      "name": "revokeRole",
      "outputs": [],
      "stateMutability": "nonpayable",
      "type": "function"
    },
    {
      "inputs": [
        {
          "internalType": "uint256",
          "name": "_decreaseFactor",
          "type": "uint256"
        }
      ],
      "name": "setDecreaseFactor",
      "outputs": [],
      "stateMutability": "nonpayable",
      "type": "function"
    },
    {
      "inputs": [
        {
          "internalType": "uint256",
          "name": "tau_",
          "type": "uint256"
        }
      ],
      "name": "setTau",
      "outputs": [],
      "stateMutability": "nonpayable",
      "type": "function"
    },
    {
      "inputs": [
        {
          "internalType": "bytes4",
          "name": "interfaceId",
          "type": "bytes4"
        }
      ],
      "name": "supportsInterface",
      "outputs": [
        {
          "internalType": "bool",
          "name": "",
          "type": "bool"
        }
      ],
      "stateMutability": "view",
      "type": "function"
    },
    {
      "inputs": [],
      "name": "symbol",
      "outputs": [
        {
          "internalType": "string",
          "name": "",
          "type": "string"
        }
      ],
      "stateMutability": "view",
      "type": "function"
    },
    {
      "inputs": [
        {
          "internalType": "address",
          "name": "account",
          "type": "address"
        }
      ],
      "name": "tax",
      "outputs": [],
      "stateMutability": "nonpayable",
      "type": "function"
    },
    {
      "inputs": [],
      "name": "totalSupply",
      "outputs": [
        {
          "internalType": "uint256",
          "name": "",
          "type": "uint256"
        }
      ],
      "stateMutability": "view",
      "type": "function"
    },
    {
      "inputs": [
        {
          "internalType": "address",
          "name": "to",
          "type": "address"
        },
        {
          "internalType": "uint256",
          "name": "value",
          "type": "uint256"
        }
      ],
      "name": "transfer",
      "outputs": [
        {
          "internalType": "bool",
          "name": "",
          "type": "bool"
        }
      ],
      "stateMutability": "nonpayable",
      "type": "function"
    },
    {
      "inputs": [
        {
          "internalType": "address",
          "name": "from",
          "type": "address"
        },
        {
          "internalType": "address",
          "name": "to",
          "type": "address"
        },
        {
          "internalType": "uint256",
          "name": "value",
          "type": "uint256"
        }
      ],
      "name": "transferFrom",
      "outputs": [
        {
          "internalType": "bool",
          "name": "",
          "type": "bool"
        }
      ],
      "stateMutability": "nonpayable",
      "type": "function"
    },
    {
      "inputs": [
        {
          "internalType": "address",
          "name": "newOwner",
          "type": "address"
        }
      ],
      "name": "transferOwnership",
      "outputs": [],
      "stateMutability": "nonpayable",
      "type": "function"
    }
  ],
  "bytecode": {
    "object": "0x60806040526305f5e100620000256b033b2e3c9fd0803ce80000006305f5e0fe620002af565b620000319190620002c9565b6007556303c267006008553480156200004957600080fd5b50604051620018da380380620018da8339810160408190526200006c916200031f565b336040518060400160405280600d81526020016c21393ab9b9b2b6399021b7b4b760991b8152506040518060400160405280600381526020016210961360ea1b8152508160039081620000c0919062000480565b506004620000cf828262000480565b5050506001600160a01b0381166200010157604051631e4fbdf760e01b81526000600482015260240160405180910390fd5b6200010c8162000194565b506200011a600033620001e6565b5060005b81518110156200018c57620001767f9f2df0fed2c77648de5860a4cc508cd0818c85b8b8a1ab4ceeef8d981c8956a68383815181106200016257620001626200054c565b6020026020010151620001e660201b60201c565b5080620001838162000562565b9150506200011e565b50506200057e565b600580546001600160a01b038381166001600160a01b0319831681179093556040519116919082907f8be0079c531659141344cd1fd0a4f28419497f9722a3daafe3b4186f6b6457e090600090a35050565b60008281526006602090815260408083206001600160a01b038516845290915281205460ff166200028f5760008381526006602090815260408083206001600160a01b03861684529091529020805460ff19166001179055620002463390565b6001600160a01b0316826001600160a01b0316847f2f8788117e7eff1d82e926ec794901d17c78024a50270940304540a733656f0d60405160405180910390a450600162000293565b5060005b92915050565b634e487b7160e01b600052601160045260246000fd5b808202811582820484141762000293576200029362000299565b600082620002e757634e487b7160e01b600052601260045260246000fd5b500490565b634e487b7160e01b600052604160045260246000fd5b80516001600160a01b03811681146200031a57600080fd5b919050565b600060208083850312156200033357600080fd5b82516001600160401b03808211156200034b57600080fd5b818501915085601f8301126200036057600080fd5b815181811115620003755762000375620002ec565b8060051b604051601f19603f830116810181811085821117156200039d576200039d620002ec565b604052918252848201925083810185019188831115620003bc57600080fd5b938501935b82851015620003e557620003d58562000302565b84529385019392850192620003c1565b98975050505050505050565b600181811c908216806200040657607f821691505b6020821081036200042757634e487b7160e01b600052602260045260246000fd5b50919050565b601f8211156200047b57600081815260208120601f850160051c81016020861015620004565750805b601f850160051c820191505b81811015620004775782815560010162000462565b5050505b505050565b81516001600160401b038111156200049c576200049c620002ec565b620004b481620004ad8454620003f1565b846200042d565b602080601f831160018114620004ec5760008415620004d35750858301515b600019600386901b1c1916600185901b17855562000477565b600085815260208120601f198616915b828110156200051d57888601518255948401946001909101908401620004fc565b50858210156200053c5787850151600019600388901b60f8161c191681555b5050505050600190811b01905550565b634e487b7160e01b600052603260045260246000fd5b60006001820162000577576200057762000299565b5060010190565b61134c806200058e6000396000f3fe608060405234801561001057600080fd5b50600436106101e55760003560e01c806379cc67901161010f578063cd50de86116100a2578063dd62ed3e11610071578063dd62ed3e1461041a578063e747a69214610453578063f07e96b314610466578063f2fde38b1461048657600080fd5b8063cd50de86146103ba578063d3fc9864146103cd578063d5391393146103e0578063d547741f1461040757600080fd5b8063a217fddf116100de578063a217fddf14610383578063a9059cbb1461038b578063bb3521201461039e578063cbcc7612146103a757600080fd5b806379cc67901461033a5780638da5cb5b1461034d57806391d148541461036857806395d89b411461037b57600080fd5b80632f2ff15d1161018757806370a082311161015657806370a08231146102e3578063715018a61461030c5780637866cdd8146103145780637899d80f1461032757600080fd5b80632f2ff15d14610299578063313ce567146102ae57806336568abe146102bd57806342966c68146102d057600080fd5b8063095ea7b3116101c3578063095ea7b31461024857806318160ddd1461025b57806323b872dd14610263578063248a9ca31461027657600080fd5b806301ffc9a7146101ea578063064e55d01461021257806306fdde0314610233575b600080fd5b6101fd6101f8366004610f6d565b610499565b60405190151581526020015b60405180910390f35b610225610220366004610fb3565b6104d0565b604051908152602001610209565b61023b610509565b6040516102099190611014565b6101fd610256366004611027565b61059b565b600254610225565b6101fd610271366004611051565b6105b3565b61022561028436600461108d565b60009081526006602052604090206001015490565b6102ac6102a73660046110a6565b610663565b005b60405160068152602001610209565b6102ac6102cb3660046110a6565b61068e565b6102ac6102de36600461108d565b6106c6565b6102256102f1366004610fb3565b6001600160a01b031660009081526020819052604090205490565b6102ac6106d3565b6102256103223660046110d2565b6106e7565b6102ac610335366004610fb3565b610731565b6102ac610348366004611027565b610760565b6005546040516001600160a01b039091168152602001610209565b6101fd6103763660046110a6565b610775565b61023b6107a0565b610225600081565b6101fd610399366004611027565b6107af565b61022560075481565b6102256103b5366004610fb3565b610843565b6102ac6103c836600461108d565b61087f565b6102ac6103db36600461110a565b61089c565b6102257f9f2df0fed2c77648de5860a4cc508cd0818c85b8b8a1ab4ceeef8d981c8956a681565b6102ac6104153660046110a6565b61097f565b6102256104283660046111d5565b6001600160a01b03918216600090815260016020908152604080832093909416825291909152205490565b6102ac61046136600461108d565b6109a4565b610225610474366004610fb3565b60096020526000908152604090205481565b6102ac610494366004610fb3565b6109b1565b60006001600160e01b03198216637965db0b60e01b14806104ca57506301ffc9a760e01b6001600160e01b03198316145b92915050565b6001600160a01b0381166000908152602081815260408083205460099092528220546105029082906103229042611215565b9392505050565b60606003805461051890611228565b80601f016020809104026020016040519081016040528092919081815260200182805461054490611228565b80156105915780601f1061056657610100808354040283529160200191610591565b820191906000526020600020905b81548152906001019060200180831161057457829003601f168201915b5050505050905090565b6000336105a98185856109ec565b5060019392505050565b6000336105c18582856109f9565b60006105cc86610843565b6001600160a01b03871660009081526009602052604090204290559050610605866105ff6005546001600160a01b031690565b83610a71565b83610625836001600160a01b031660009081526020819052604090205490565b101561064c5760405162461bcd60e51b815260040161064390611262565b60405180910390fd5b610657868686610a71565b50600195945050505050565b60008281526006602052604090206001015461067e81610ad0565b6106888383610ada565b50505050565b6001600160a01b03811633146106b75760405163334bd91960e11b815260040160405180910390fd5b6106c18282610b6e565b505050565b6106d03382610bdb565b50565b6106db610c11565b6106e56000610c3e565b565b600060085482106106fa575060006104ca565b6008546105029084906107226107108683611215565b6b033b2e3c9fd0803ce8000000610c90565b61072c91906112a9565b610cbd565b610739610c11565b600061074482610843565b905061075c826105ff6005546001600160a01b031690565b5050565b61076b8233836109f9565b61075c8282610bdb565b60009182526006602090815260408084206001600160a01b0393909316845291905290205460ff1690565b60606004805461051890611228565b600033816107bc82610843565b6001600160a01b038316600090815260096020526040902042905590506107ef826105ff6005546001600160a01b031690565b8361080f836001600160a01b031660009081526020819052604090205490565b101561082d5760405162461bcd60e51b815260040161064390611262565b610838828686610a71565b506001949350505050565b6001600160a01b0381166000908152602081815260408083205460099092528220546108759082906103229042611215565b6105029082611215565b610887610c11565b62278d0081101561089757600080fd5b600855565b6108c67f9f2df0fed2c77648de5860a4cc508cd0818c85b8b8a1ab4ceeef8d981c8956a633610775565b6109125760405162461bcd60e51b815260206004820152601d60248201527f4d7573742068617665206d696e74657220726f6c6520746f206d696e740000006044820152606401610643565b6001600160a01b03831660009081526009602052604090204290556109378383610cff565b826001600160a01b03167fe7cd4ce7f2a465edc730269a1305e8a48bad821e8fb7e152ec413829c01a53c483836040516109729291906112cb565b60405180910390a2505050565b60008281526006602052604090206001015461099a81610ad0565b6106888383610b6e565b6109ac610c11565b600755565b6109b9610c11565b6001600160a01b0381166109e357604051631e4fbdf760e01b815260006004820152602401610643565b6106d081610c3e565b6106c18383836001610d35565b6001600160a01b0383811660009081526001602090815260408083209386168352929052205460001981146106885781811015610a6257604051637dc7a0d960e11b81526001600160a01b03841660048201526024810182905260448101839052606401610643565b61068884848484036000610d35565b6001600160a01b038316610a9b57604051634b637e8f60e11b815260006004820152602401610643565b6001600160a01b038216610ac55760405163ec442f0560e01b815260006004820152602401610643565b6106c1838383610e0a565b6106d08133610f34565b6000610ae68383610775565b610b665760008381526006602090815260408083206001600160a01b03861684529091529020805460ff19166001179055610b1e3390565b6001600160a01b0316826001600160a01b0316847f2f8788117e7eff1d82e926ec794901d17c78024a50270940304540a733656f0d60405160405180910390a45060016104ca565b5060006104ca565b6000610b7a8383610775565b15610b665760008381526006602090815260408083206001600160a01b0386168085529252808320805460ff1916905551339286917ff6391f5c32d9c69d2a47ea670b442974b53935d1edc7fd64eb21e047a839171b9190a45060016104ca565b6001600160a01b038216610c0557604051634b637e8f60e11b815260006004820152602401610643565b61075c82600083610e0a565b6005546001600160a01b031633146106e55760405163118cdaa760e01b8152336004820152602401610643565b600580546001600160a01b038381166001600160a01b0319831681179093556040519116919082907f8be0079c531659141344cd1fd0a4f28419497f9722a3daafe3b4186f6b6457e090600090a35050565b6000811580610cb457508282610ca681836112ec565b9250610cb290836112a9565b145b6104ca57600080fd5b6000610cc982846112ec565b9050811580610ce0575082610cde83836112a9565b145b610ce957600080fd5b6105026b033b2e3c9fd0803ce8000000826112a9565b6001600160a01b038216610d295760405163ec442f0560e01b815260006004820152602401610643565b61075c60008383610e0a565b6001600160a01b038416610d5f5760405163e602df0560e01b815260006004820152602401610643565b6001600160a01b038316610d8957604051634a1406b160e11b815260006004820152602401610643565b6001600160a01b038085166000908152600160209081526040808320938716835292905220829055801561068857826001600160a01b0316846001600160a01b03167f8c5be1e5ebec7d5bd14f71427d1e84f3dd0314c0f7b2291e5b200ac8c7c3b92584604051610dfc91815260200190565b60405180910390a350505050565b6001600160a01b038316610e35578060026000828254610e2a9190611303565b90915550610ea79050565b6001600160a01b03831660009081526020819052604090205481811015610e885760405163391434e360e21b81526001600160a01b03851660048201526024810182905260448101839052606401610643565b6001600160a01b03841660009081526020819052604090209082900390555b6001600160a01b038216610ec357600280548290039055610ee2565b6001600160a01b03821660009081526020819052604090208054820190555b816001600160a01b0316836001600160a01b03167fddf252ad1be2c89b69c2b068fc378daa952ba7f163c4a11628f55a4df523b3ef83604051610f2791815260200190565b60405180910390a3505050565b610f3e8282610775565b61075c5760405163e2517d3f60e01b81526001600160a01b038216600482015260248101839052604401610643565b600060208284031215610f7f57600080fd5b81356001600160e01b03198116811461050257600080fd5b80356001600160a01b0381168114610fae57600080fd5b919050565b600060208284031215610fc557600080fd5b61050282610f97565b6000815180845260005b81811015610ff457602081850181015186830182015201610fd8565b506000602082860101526020601f19601f83011685010191505092915050565b6020815260006105026020830184610fce565b6000806040838503121561103a57600080fd5b61104383610f97565b946020939093013593505050565b60008060006060848603121561106657600080fd5b61106f84610f97565b925061107d60208501610f97565b9150604084013590509250925092565b60006020828403121561109f57600080fd5b5035919050565b600080604083850312156110b957600080fd5b823591506110c960208401610f97565b90509250929050565b600080604083850312156110e557600080fd5b50508035926020909101359150565b634e487b7160e01b600052604160045260246000fd5b60008060006060848603121561111f57600080fd5b61112884610f97565b925060208401359150604084013567ffffffffffffffff8082111561114c57600080fd5b818601915086601f83011261116057600080fd5b813581811115611172576111726110f4565b604051601f8201601f19908116603f0116810190838211818310171561119a5761119a6110f4565b816040528281528960208487010111156111b357600080fd5b8260208601602083013760006020848301015280955050505050509250925092565b600080604083850312156111e857600080fd5b6111f183610f97565b91506110c960208401610f97565b634e487b7160e01b600052601160045260246000fd5b818103818111156104ca576104ca6111ff565b600181811c9082168061123c57607f821691505b60208210810361125c57634e487b7160e01b600052602260045260246000fd5b50919050565b60208082526027908201527f4e6f7420656e6f7567682062616c616e63652c20636865636b20666f722064656040820152666d75727261676560c81b606082015260800190565b6000826112c657634e487b7160e01b600052601260045260246000fd5b500490565b8281526040602082015260006112e46040830184610fce565b949350505050565b80820281158282048414176104ca576104ca6111ff565b808201808211156104ca576104ca6111ff56fea2646970667358221220f9ff86379bfe8adc8c64ba05e331d40a6573f75a09438649ec53f1b2cfc99a7b64736f6c63430008140033",
    "linkReferences": {}
  },
  "methodIdentifiers": {
    "DEFAULT_ADMIN_ROLE()": "a217fddf",
    "MINTER_ROLE()": "d5391393",
    "allowance(address,address)": "dd62ed3e",
    "approve(address,uint256)": "095ea7b3",
    "balanceAfterDemurrage(address)": "064e55d0",
    "balanceOf(address)": "70a08231",
    "burn(uint256)": "42966c68",
    "burnFrom(address,uint256)": "79cc6790",
    "decimals()": "313ce567",
    "decreaseFactor()": "bb352120",
    "getDemurrage(address)": "cbcc7612",
    "getRoleAdmin(bytes32)": "248a9ca3",
    "grantRole(bytes32,address)": "2f2ff15d",
    "hasRole(bytes32,address)": "91d14854",
    "lastActivity(address)": "f07e96b3",
    "linearDecrease(uint256,uint256)": "7866cdd8",
    "mint(address,uint256,string)": "d3fc9864",
    "name()": "06fdde03",
    "owner()": "8da5cb5b",
    "renounceOwnership()": "715018a6",
    "renounceRole(bytes32,address)": "36568abe",
    "revokeRole(bytes32,address)": "d547741f",
    "setDecreaseFactor(uint256)": "e747a692",
    "setTau(uint256)": "cd50de86",
    "supportsInterface(bytes4)": "01ffc9a7",
    "symbol()": "95d89b41",
    "tax(address)": "7899d80f",
    "totalSupply()": "18160ddd",
    "transfer(address,uint256)": "a9059cbb",
    "transferFrom(address,address,uint256)": "23b872dd",
    "transferOwnership(address)": "f2fde38b"
  },
  "id": 0
}