{
  "abi": [
    {
      "inputs": [
        {
          "internalType": "address[]",
          "name": "admins",
          "type": "address[]"
        }
      ],
      "stateMutability": "nonpayable",
      "type": "constructor"
    },
    {
      "inputs": [],
      "name": "AccessControlBadConfirmation",
      "type": "error"
    },
    {
      "inputs": [
        {
          "internalType": "address",
          "name": "account",
          "type": "address"
        },
        {
          "internalType": "bytes32",
          "name": "neededRole",
          "type": "bytes32"
        }
      ],
      "name": "AccessControlUnauthorizedAccount",
      "type": "error"
    },
    {
      "inputs": [
        {
          "internalType": "address",
          "name": "spender",
          "type": "address"
        },
        {
          "internalType": "uint256",
          "name": "allowance",
          "type": "uint256"
        },
        {
          "internalType": "uint256",
          "name": "needed",
          "type": "uint256"
        }
      ],
      "name": "ERC20InsufficientAllowance",
      "type": "error"
    },
    {
      "inputs": [
        {
          "internalType": "address",
          "name": "sender",
          "type": "address"
        },
        {
          "internalType": "uint256",
          "name": "balance",
          "type": "uint256"
        },
        {
          "internalType": "uint256",
          "name": "needed",
          "type": "uint256"
        }
      ],
      "name": "ERC20InsufficientBalance",
      "type": "error"
    },
    {
      "inputs": [
        {
          "internalType": "address",
          "name": "approver",
          "type": "address"
        }
      ],
      "name": "ERC20InvalidApprover",
      "type": "error"
    },
    {
      "inputs": [
        {
          "internalType": "address",
          "name": "receiver",
          "type": "address"
        }
      ],
      "name": "ERC20InvalidReceiver",
      "type": "error"
    },
    {
      "inputs": [
        {
          "internalType": "address",
          "name": "sender",
          "type": "address"
        }
      ],
      "name": "ERC20InvalidSender",
      "type": "error"
    },
    {
      "inputs": [
        {
          "internalType": "address",
          "name": "spender",
          "type": "address"
        }
      ],
      "name": "ERC20InvalidSpender",
      "type": "error"
    },
    {
      "inputs": [
        {
          "internalType": "address",
          "name": "owner",
          "type": "address"
        }
      ],
      "name": "OwnableInvalidOwner",
      "type": "error"
    },
    {
      "inputs": [
        {
          "internalType": "address",
          "name": "account",
          "type": "address"
        }
      ],
      "name": "OwnableUnauthorizedAccount",
      "type": "error"
    },
    {
      "anonymous": false,
      "inputs": [
        {
          "indexed": true,
          "internalType": "address",
          "name": "owner",
          "type": "address"
        },
        {
          "indexed": true,
          "internalType": "address",
          "name": "spender",
          "type": "address"
        },
        {
          "indexed": false,
          "internalType": "uint256",
          "name": "value",
          "type": "uint256"
        }
      ],
      "name": "Approval",
      "type": "event"
    },
    {
      "anonymous": false,
      "inputs": [
        {
          "indexed": true,
          "internalType": "address",
          "name": "to",
          "type": "address"
        },
        {
          "indexed": false,
          "internalType": "uint256",
          "name": "amount",
          "type": "uint256"
        },
        {
          "indexed": false,
          "internalType": "string",
          "name": "description",
          "type": "string"
        }
      ],
      "name": "Minted",
      "type": "event"
    },
    {
      "anonymous": false,
      "inputs": [
        {
          "indexed": true,
          "internalType": "address",
          "name": "previousOwner",
          "type": "address"
        },
        {
          "indexed": true,
          "internalType": "address",
          "name": "newOwner",
          "type": "address"
        }
      ],
      "name": "OwnershipTransferred",
      "type": "event"
    },
    {
      "anonymous": false,
      "inputs": [
        {
          "indexed": true,
          "internalType": "bytes32",
          "name": "role",
          "type": "bytes32"
        },
        {
          "indexed": true,
          "internalType": "bytes32",
          "name": "previousAdminRole",
          "type": "bytes32"
        },
        {
          "indexed": true,
          "internalType": "bytes32",
          "name": "newAdminRole",
          "type": "bytes32"
        }
      ],
      "name": "RoleAdminChanged",
      "type": "event"
    },
    {
      "anonymous": false,
      "inputs": [
        {
          "indexed": true,
          "internalType": "bytes32",
          "name": "role",
          "type": "bytes32"
        },
        {
          "indexed": true,
          "internalType": "address",
          "name": "account",
          "type": "address"
        },
        {
          "indexed": true,
          "internalType": "address",
          "name": "sender",
          "type": "address"
        }
      ],
      "name": "RoleGranted",
      "type": "event"
    },
    {
      "anonymous": false,
      "inputs": [
        {
          "indexed": true,
          "internalType": "bytes32",
          "name": "role",
          "type": "bytes32"
        },
        {
          "indexed": true,
          "internalType": "address",
          "name": "account",
          "type": "address"
        },
        {
          "indexed": true,
          "internalType": "address",
          "name": "sender",
          "type": "address"
        }
      ],
      "name": "RoleRevoked",
      "type": "event"
    },
    {
      "anonymous": false,
      "inputs": [
        {
          "indexed": true,
          "internalType": "address",
          "name": "from",
          "type": "address"
        },
        {
          "indexed": true,
          "internalType": "address",
          "name": "to",
          "type": "address"
        },
        {
          "indexed": false,
          "internalType": "uint256",
          "name": "value",
          "type": "uint256"
        }
      ],
      "name": "Transfer",
      "type": "event"
    },
    {
      "inputs": [],
      "name": "DEFAULT_ADMIN_ROLE",
      "outputs": [
        {
          "internalType": "bytes32",
          "name": "",
          "type": "bytes32"
        }
      ],
      "stateMutability": "view",
      "type": "function"
    },
    {
      "inputs": [],
      "name": "MINTER_ROLE",
      "outputs": [
        {
          "internalType": "bytes32",
          "name": "",
          "type": "bytes32"
        }
      ],
      "stateMutability": "view",
      "type": "function"
    },
    {
      "inputs": [
        {
          "internalType": "address",
          "name": "owner",
          "type": "address"
        },
        {
          "internalType": "address",
          "name": "spender",
          "type": "address"
        }
      ],
      "name": "allowance",
      "outputs": [
        {
          "internalType": "uint256",
          "name": "",
          "type": "uint256"
        }
      ],
      "stateMutability": "view",
      "type": "function"
    },
    {
      "inputs": [
        {
          "internalType": "address",
          "name": "spender",
          "type": "address"
        },
        {
          "internalType": "uint256",
          "name": "value",
          "type": "uint256"
        }
      ],
      "name": "approve",
      "outputs": [
        {
          "internalType": "bool",
          "name": "",
          "type": "bool"
        }
      ],
      "stateMutability": "nonpayable",
      "type": "function"
    },
    {
      "inputs": [
        {
          "internalType": "address",
          "name": "account",
          "type": "address"
        }
      ],
      "name": "balanceAfterDemurrage",
      "outputs": [
        {
          "internalType": "uint256",
          "name": "balance",
          "type": "uint256"
        }
      ],
      "stateMutability": "view",
      "type": "function"
    },
    {
      "inputs": [
        {
          "internalType": "address",
          "name": "account",
          "type": "address"
        }
      ],
      "name": "balanceOf",
      "outputs": [
        {
          "internalType": "uint256",
          "name": "",
          "type": "uint256"
        }
      ],
      "stateMutability": "view",
      "type": "function"
    },
    {
      "inputs": [
        {
          "internalType": "uint256",
          "name": "value",
          "type": "uint256"
        }
      ],
      "name": "burn",
      "outputs": [],
      "stateMutability": "nonpayable",
      "type": "function"
    },
    {
      "inputs": [
        {
          "internalType": "address",
          "name": "account",
          "type": "address"
        },
        {
          "internalType": "uint256",
          "name": "value",
          "type": "uint256"
        }
      ],
      "name": "burnFrom",
      "outputs": [],
      "stateMutability": "nonpayable",
      "type": "function"
    },
    {
      "inputs": [],
      "name": "decayPerSecond",
      "outputs": [
        {
          "internalType": "uint256",
          "name": "",
          "type": "uint256"
        }
      ],
      "stateMutability": "view",
      "type": "function"
    },
    {
      "inputs": [],
      "name": "decimals",
      "outputs": [
        {
          "internalType": "uint8",
          "name": "",
          "type": "uint8"
        }
      ],
      "stateMutability": "view",
      "type": "function"
    },
    {
      "inputs": [
        {
          "internalType": "uint256",
          "name": "top",
          "type": "uint256"
        },
        {
          "internalType": "uint256",
          "name": "dur",
          "type": "uint256"
        }
      ],
      "name": "exponentialDecay",
      "outputs": [
        {
          "internalType": "uint256",
          "name": "",
          "type": "uint256"
        }
      ],
      "stateMutability": "view",
      "type": "function"
    },
    {
      "inputs": [
        {
          "internalType": "address",
          "name": "account",
          "type": "address"
        }
      ],
      "name": "getDemurrage",
      "outputs": [
        {
          "internalType": "uint256",
          "name": "demurrage",
          "type": "uint256"
        }
      ],
      "stateMutability": "view",
      "type": "function"
    },
    {
      "inputs": [
        {
          "internalType": "bytes32",
          "name": "role",
          "type": "bytes32"
        }
      ],
      "name": "getRoleAdmin",
      "outputs": [
        {
          "internalType": "bytes32",
          "name": "",
          "type": "bytes32"
        }
      ],
      "stateMutability": "view",
      "type": "function"
    },
    {
      "inputs": [
        {
          "internalType": "bytes32",
          "name": "role",
          "type": "bytes32"
        },
        {
          "internalType": "address",
          "name": "account",
          "type": "address"
        }
      ],
      "name": "grantRole",
      "outputs": [],
      "stateMutability": "nonpayable",
      "type": "function"
    },
    {
      "inputs": [
        {
          "internalType": "bytes32",
          "name": "role",
          "type": "bytes32"
        },
        {
          "internalType": "address",
          "name": "account",
          "type": "address"
        }
      ],
      "name": "hasRole",
      "outputs": [
        {
          "internalType": "bool",
          "name": "",
          "type": "bool"
        }
      ],
      "stateMutability": "view",
      "type": "function"
    },
    {
      "inputs": [
        {
          "internalType": "address",
          "name": "",
          "type": "address"
        }
      ],
      "name": "lastActivity",
      "outputs": [
        {
          "internalType": "uint256",
          "name": "",
          "type": "uint256"
        }
      ],
      "stateMutability": "view",
      "type": "function"
    },
    {
      "inputs": [
        {
          "internalType": "address",
          "name": "to",
          "type": "address"
        },
        {
          "internalType": "uint256",
          "name": "amount",
          "type": "uint256"
        },
        {
          "internalType": "string",
          "name": "description",
          "type": "string"
        }
      ],
      "name": "mint",
      "outputs": [],
      "stateMutability": "nonpayable",
      "type": "function"
    },
    {
      "inputs": [],
      "name": "name",
      "outputs": [
        {
          "internalType": "string",
          "name": "",
          "type": "string"
        }
      ],
      "stateMutability": "view",
      "type": "function"
    },
    {
      "inputs": [],
      "name": "owner",
      "outputs": [
        {
          "internalType": "address",
          "name": "",
          "type": "address"
        }
      ],
      "stateMutability": "view",
      "type": "function"
    },
    {
      "inputs": [],
      "name": "renounceOwnership",
      "outputs": [],
      "stateMutability": "nonpayable",
      "type": "function"
    },
    {
      "inputs": [
        {
          "internalType": "bytes32",
          "name": "role",
          "type": "bytes32"
        },
        {
          "internalType": "address",
          "name": "callerConfirmation",
          "type": "address"
        }
      ],
      "name": "renounceRole",
      "outputs": [],
      "stateMutability": "nonpayable",
      "type": "function"
    },
    {
      "inputs": [
        {
          "internalType": "bytes32",
          "name": "role",
          "type": "bytes32"
        },
        {
          "internalType": "address",
          "name": "account",
          "type": "address"
        }
      ],
      "name": "revokeRole",
      "outputs": [],
      "stateMutability": "nonpayable",
      "type": "function"
    },
    {
      "inputs": [
        {
          "internalType": "uint256",
          "name": "_decayPerSecond",
          "type": "uint256"
        }
      ],
      "name": "setDecayPerSecond",
      "outputs": [],
      "stateMutability": "nonpayable",
      "type": "function"
    },
    {
      "inputs": [
        {
          "internalType": "bytes4",
          "name": "interfaceId",
          "type": "bytes4"
        }
      ],
      "name": "supportsInterface",
      "outputs": [
        {
          "internalType": "bool",
          "name": "",
          "type": "bool"
        }
      ],
      "stateMutability": "view",
      "type": "function"
    },
    {
      "inputs": [],
      "name": "symbol",
      "outputs": [
        {
          "internalType": "string",
          "name": "",
          "type": "string"
        }
      ],
      "stateMutability": "view",
      "type": "function"
    },
    {
      "inputs": [
        {
          "internalType": "address",
          "name": "account",
          "type": "address"
        }
      ],
      "name": "tax",
      "outputs": [],
      "stateMutability": "nonpayable",
      "type": "function"
    },
    {
      "inputs": [],
      "name": "totalSupply",
      "outputs": [
        {
          "internalType": "uint256",
          "name": "",
          "type": "uint256"
        }
      ],
      "stateMutability": "view",
      "type": "function"
    },
    {
      "inputs": [
        {
          "internalType": "address",
          "name": "to",
          "type": "address"
        },
        {
          "internalType": "uint256",
          "name": "value",
          "type": "uint256"
        }
      ],
      "name": "transfer",
      "outputs": [
        {
          "internalType": "bool",
          "name": "",
          "type": "bool"
        }
      ],
      "stateMutability": "nonpayable",
      "type": "function"
    },
    {
      "inputs": [
        {
          "internalType": "address",
          "name": "from",
          "type": "address"
        },
        {
          "internalType": "address",
          "name": "to",
          "type": "address"
        },
        {
          "internalType": "uint256",
          "name": "value",
          "type": "uint256"
        }
      ],
      "name": "transferFrom",
      "outputs": [
        {
          "internalType": "bool",
          "name": "",
          "type": "bool"
        }
      ],
      "stateMutability": "nonpayable",
      "type": "function"
    },
    {
      "inputs": [
        {
          "internalType": "address",
          "name": "newOwner",
          "type": "address"
        }
      ],
      "name": "transferOwnership",
      "outputs": [],
      "stateMutability": "nonpayable",
      "type": "function"
    }
  ],
  "bytecode": {
    "object": "0x60806040526305f5e100620000256b033b2e3c9fd0803ce80000006305f5e0fe620002a7565b620000319190620002c1565b6007553480156200004157600080fd5b506040516200190238038062001902833981016040819052620000649162000317565b336040518060400160405280600d81526020016c21393ab9b9b2b6399021b7b4b760991b8152506040518060400160405280600381526020016210961360ea1b8152508160039081620000b8919062000478565b506004620000c7828262000478565b5050506001600160a01b038116620000f957604051631e4fbdf760e01b81526000600482015260240160405180910390fd5b62000104816200018c565b5062000112600033620001de565b5060005b815181101562000184576200016e7f9f2df0fed2c77648de5860a4cc508cd0818c85b8b8a1ab4ceeef8d981c8956a68383815181106200015a576200015a62000544565b6020026020010151620001de60201b60201c565b50806200017b816200055a565b91505062000116565b505062000576565b600580546001600160a01b038381166001600160a01b0319831681179093556040519116919082907f8be0079c531659141344cd1fd0a4f28419497f9722a3daafe3b4186f6b6457e090600090a35050565b60008281526006602090815260408083206001600160a01b038516845290915281205460ff16620002875760008381526006602090815260408083206001600160a01b03861684529091529020805460ff191660011790556200023e3390565b6001600160a01b0316826001600160a01b0316847f2f8788117e7eff1d82e926ec794901d17c78024a50270940304540a733656f0d60405160405180910390a45060016200028b565b5060005b92915050565b634e487b7160e01b600052601160045260246000fd5b80820281158282048414176200028b576200028b62000291565b600082620002df57634e487b7160e01b600052601260045260246000fd5b500490565b634e487b7160e01b600052604160045260246000fd5b80516001600160a01b03811681146200031257600080fd5b919050565b600060208083850312156200032b57600080fd5b82516001600160401b03808211156200034357600080fd5b818501915085601f8301126200035857600080fd5b8151818111156200036d576200036d620002e4565b8060051b604051601f19603f83011681018181108582111715620003955762000395620002e4565b604052918252848201925083810185019188831115620003b457600080fd5b938501935b82851015620003dd57620003cd85620002fa565b84529385019392850192620003b9565b98975050505050505050565b600181811c90821680620003fe57607f821691505b6020821081036200041f57634e487b7160e01b600052602260045260246000fd5b50919050565b601f8211156200047357600081815260208120601f850160051c810160208610156200044e5750805b601f850160051c820191505b818110156200046f578281556001016200045a565b5050505b505050565b81516001600160401b03811115620004945762000494620002e4565b620004ac81620004a58454620003e9565b8462000425565b602080601f831160018114620004e45760008415620004cb5750858301515b600019600386901b1c1916600185901b1785556200046f565b600085815260208120601f198616915b828110156200051557888601518255948401946001909101908401620004f4565b5085821015620005345787850151600019600388901b60f8161c191681555b5050505050600190811b01905550565b634e487b7160e01b600052603260045260246000fd5b6000600182016200056f576200056f62000291565b5060010190565b61137c80620005866000396000f3fe608060405234801561001057600080fd5b50600436106101da5760003560e01c806379cc679011610104578063cbcc7612116100a2578063d547741f11610071578063d547741f146103fc578063dd62ed3e1461040f578063f07e96b314610448578063f2fde38b1461046857600080fd5b8063cbcc76121461039c578063cd38de28146103af578063d3fc9864146103c2578063d5391393146103d557600080fd5b806395d89b41116100de57806395d89b4114610370578063a217fddf14610378578063a9059cbb14610380578063ca9985e51461039357600080fd5b806379cc67901461032f5780638da5cb5b1461034257806391d148541461035d57600080fd5b80632f2ff15d1161017c57806370a082311161014b57806370a08231146102d8578063715018a61461030157806375927791146103095780637899d80f1461031c57600080fd5b80632f2ff15d1461028e578063313ce567146102a357806336568abe146102b257806342966c68146102c557600080fd5b8063095ea7b3116101b8578063095ea7b31461023d57806318160ddd1461025057806323b872dd14610258578063248a9ca31461026b57600080fd5b806301ffc9a7146101df578063064e55d01461020757806306fdde0314610228575b600080fd5b6101f26101ed366004610f9d565b61047b565b60405190151581526020015b60405180910390f35b61021a610215366004610fe3565b6104b2565b6040519081526020016101fe565b6102306104eb565b6040516101fe9190611044565b6101f261024b366004611057565b61057d565b60025461021a565b6101f2610266366004611081565b610595565b61021a6102793660046110bd565b60009081526006602052604090206001015490565b6102a161029c3660046110d6565b610645565b005b604051600681526020016101fe565b6102a16102c03660046110d6565b610670565b6102a16102d33660046110bd565b6106a8565b61021a6102e6366004610fe3565b6001600160a01b031660009081526020819052604090205490565b6102a16106b5565b61021a610317366004611102565b6106c9565b6102a161032a366004610fe3565b6106ed565b6102a161033d366004611057565b61071c565b6005546040516001600160a01b0390911681526020016101fe565b6101f261036b3660046110d6565b610731565b61023061075c565b61021a600081565b6101f261038e366004611057565b61076b565b61021a60075481565b61021a6103aa366004610fe3565b6107ff565b6102a16103bd3660046110bd565b61083b565b6102a16103d036600461113a565b610848565b61021a7f9f2df0fed2c77648de5860a4cc508cd0818c85b8b8a1ab4ceeef8d981c8956a681565b6102a161040a3660046110d6565b61092b565b61021a61041d366004611205565b6001600160a01b03918216600090815260016020908152604080832093909416825291909152205490565b61021a610456366004610fe3565b60086020526000908152604090205481565b6102a1610476366004610fe3565b610950565b60006001600160e01b03198216637965db0b60e01b14806104ac57506301ffc9a760e01b6001600160e01b03198316145b92915050565b6001600160a01b0381166000908152602081815260408083205460089092528220546104e49082906103179042611245565b9392505050565b6060600380546104fa90611258565b80601f016020809104026020016040519081016040528092919081815260200182805461052690611258565b80156105735780601f1061054857610100808354040283529160200191610573565b820191906000526020600020905b81548152906001019060200180831161055657829003601f168201915b5050505050905090565b60003361058b81858561098b565b5060019392505050565b6000336105a3858285610998565b60006105ae866107ff565b6001600160a01b038716600090815260086020526040902042905590506105e7866105e16005546001600160a01b031690565b83610a10565b83610607836001600160a01b031660009081526020819052604090205490565b101561062e5760405162461bcd60e51b815260040161062590611292565b60405180910390fd5b610639868686610a10565b50600195945050505050565b60008281526006602052604090206001015461066081610a6f565b61066a8383610a79565b50505050565b6001600160a01b03811633146106995760405163334bd91960e11b815260040160405180910390fd5b6106a38282610b0d565b505050565b6106b23382610b7a565b50565b6106bd610bb0565b6106c76000610bdd565b565b60006104e4836106e8600754856b033b2e3c9fd0803ce8000000610c2f565b610ced565b6106f5610bb0565b6000610700826107ff565b9050610718826105e16005546001600160a01b031690565b5050565b610727823383610998565b6107188282610b7a565b60009182526006602090815260408084206001600160a01b0393909316845291905290205460ff1690565b6060600480546104fa90611258565b60003381610778826107ff565b6001600160a01b038316600090815260086020526040902042905590506107ab826105e16005546001600160a01b031690565b836107cb836001600160a01b031660009081526020819052604090205490565b10156107e95760405162461bcd60e51b815260040161062590611292565b6107f4828686610a10565b506001949350505050565b6001600160a01b0381166000908152602081815260408083205460089092528220546108319082906103179042611245565b6104e49082611245565b610843610bb0565b600755565b6108727f9f2df0fed2c77648de5860a4cc508cd0818c85b8b8a1ab4ceeef8d981c8956a633610731565b6108be5760405162461bcd60e51b815260206004820152601d60248201527f4d7573742068617665206d696e74657220726f6c6520746f206d696e740000006044820152606401610625565b6001600160a01b03831660009081526008602052604090204290556108e38383610d2f565b826001600160a01b03167fe7cd4ce7f2a465edc730269a1305e8a48bad821e8fb7e152ec413829c01a53c4838360405161091e9291906112d9565b60405180910390a2505050565b60008281526006602052604090206001015461094681610a6f565b61066a8383610b0d565b610958610bb0565b6001600160a01b03811661098257604051631e4fbdf760e01b815260006004820152602401610625565b6106b281610bdd565b6106a38383836001610d65565b6001600160a01b03838116600090815260016020908152604080832093861683529290522054600019811461066a5781811015610a0157604051637dc7a0d960e11b81526001600160a01b03841660048201526024810182905260448101839052606401610625565b61066a84848484036000610d65565b6001600160a01b038316610a3a57604051634b637e8f60e11b815260006004820152602401610625565b6001600160a01b038216610a645760405163ec442f0560e01b815260006004820152602401610625565b6106a3838383610e3a565b6106b28133610f64565b6000610a858383610731565b610b055760008381526006602090815260408083206001600160a01b03861684529091529020805460ff19166001179055610abd3390565b6001600160a01b0316826001600160a01b0316847f2f8788117e7eff1d82e926ec794901d17c78024a50270940304540a733656f0d60405160405180910390a45060016104ac565b5060006104ac565b6000610b198383610731565b15610b055760008381526006602090815260408083206001600160a01b0386168085529252808320805460ff1916905551339286917ff6391f5c32d9c69d2a47ea670b442974b53935d1edc7fd64eb21e047a839171b9190a45060016104ac565b6001600160a01b038216610ba457604051634b637e8f60e11b815260006004820152602401610625565b61071882600083610e3a565b6005546001600160a01b031633146106c75760405163118cdaa760e01b8152336004820152602401610625565b600580546001600160a01b038381166001600160a01b0319831681179093556040519116919082907f8be0079c531659141344cd1fd0a4f28419497f9722a3daafe3b4186f6b6457e090600090a35050565b6000828015610ce157848015610cd657600185168015610c5157869350610c55565b8493505b50600284046002860495505b8515610cd0578687028760801c15610c7857600080fd5b81810181811015610c8857600080fd5b8690049750506001861615610cc5578684028488820414158815151615610cae57600080fd5b81810181811015610cbe57600080fd5b8690049450505b600286049550610c61565b50610cdb565b600092505b50610ce5565b8291505b509392505050565b6000610cf982846112fa565b9050811580610d10575082610d0e8383611311565b145b610d1957600080fd5b6104e46b033b2e3c9fd0803ce800000082611311565b6001600160a01b038216610d595760405163ec442f0560e01b815260006004820152602401610625565b61071860008383610e3a565b6001600160a01b038416610d8f5760405163e602df0560e01b815260006004820152602401610625565b6001600160a01b038316610db957604051634a1406b160e11b815260006004820152602401610625565b6001600160a01b038085166000908152600160209081526040808320938716835292905220829055801561066a57826001600160a01b0316846001600160a01b03167f8c5be1e5ebec7d5bd14f71427d1e84f3dd0314c0f7b2291e5b200ac8c7c3b92584604051610e2c91815260200190565b60405180910390a350505050565b6001600160a01b038316610e65578060026000828254610e5a9190611333565b90915550610ed79050565b6001600160a01b03831660009081526020819052604090205481811015610eb85760405163391434e360e21b81526001600160a01b03851660048201526024810182905260448101839052606401610625565b6001600160a01b03841660009081526020819052604090209082900390555b6001600160a01b038216610ef357600280548290039055610f12565b6001600160a01b03821660009081526020819052604090208054820190555b816001600160a01b0316836001600160a01b03167fddf252ad1be2c89b69c2b068fc378daa952ba7f163c4a11628f55a4df523b3ef83604051610f5791815260200190565b60405180910390a3505050565b610f6e8282610731565b6107185760405163e2517d3f60e01b81526001600160a01b038216600482015260248101839052604401610625565b600060208284031215610faf57600080fd5b81356001600160e01b0319811681146104e457600080fd5b80356001600160a01b0381168114610fde57600080fd5b919050565b600060208284031215610ff557600080fd5b6104e482610fc7565b6000815180845260005b8181101561102457602081850181015186830182015201611008565b506000602082860101526020601f19601f83011685010191505092915050565b6020815260006104e46020830184610ffe565b6000806040838503121561106a57600080fd5b61107383610fc7565b946020939093013593505050565b60008060006060848603121561109657600080fd5b61109f84610fc7565b92506110ad60208501610fc7565b9150604084013590509250925092565b6000602082840312156110cf57600080fd5b5035919050565b600080604083850312156110e957600080fd5b823591506110f960208401610fc7565b90509250929050565b6000806040838503121561111557600080fd5b50508035926020909101359150565b634e487b7160e01b600052604160045260246000fd5b60008060006060848603121561114f57600080fd5b61115884610fc7565b925060208401359150604084013567ffffffffffffffff8082111561117c57600080fd5b818601915086601f83011261119057600080fd5b8135818111156111a2576111a2611124565b604051601f8201601f19908116603f011681019083821181831017156111ca576111ca611124565b816040528281528960208487010111156111e357600080fd5b8260208601602083013760006020848301015280955050505050509250925092565b6000806040838503121561121857600080fd5b61122183610fc7565b91506110f960208401610fc7565b634e487b7160e01b600052601160045260246000fd5b818103818111156104ac576104ac61122f565b600181811c9082168061126c57607f821691505b60208210810361128c57634e487b7160e01b600052602260045260246000fd5b50919050565b60208082526027908201527f4e6f7420656e6f7567682062616c616e63652c20636865636b20666f722064656040820152666d75727261676560c81b606082015260800190565b8281526040602082015260006112f26040830184610ffe565b949350505050565b80820281158282048414176104ac576104ac61122f565b60008261132e57634e487b7160e01b600052601260045260246000fd5b500490565b808201808211156104ac576104ac61122f56fea26469706673582212203c4267c7c1d7573b1c862c9973dc069f522c33a062a45f0f26e349bad11990dc64736f6c63430008140033",
    "linkReferences": {}
  },
  "methodIdentifiers": {
    "DEFAULT_ADMIN_ROLE()": "a217fddf",
    "MINTER_ROLE()": "d5391393",
    "allowance(address,address)": "dd62ed3e",
    "approve(address,uint256)": "095ea7b3",
    "balanceAfterDemurrage(address)": "064e55d0",
    "balanceOf(address)": "70a08231",
    "burn(uint256)": "42966c68",
    "burnFrom(address,uint256)": "79cc6790",
    "decayPerSecond()": "ca9985e5",
    "decimals()": "313ce567",
    "exponentialDecay(uint256,uint256)": "75927791",
    "getDemurrage(address)": "cbcc7612",
    "getRoleAdmin(bytes32)": "248a9ca3",
    "grantRole(bytes32,address)": "2f2ff15d",
    "hasRole(bytes32,address)": "91d14854",
    "lastActivity(address)": "f07e96b3",
    "mint(address,uint256,string)": "d3fc9864",
    "name()": "06fdde03",
    "owner()": "8da5cb5b",
    "renounceOwnership()": "715018a6",
    "renounceRole(bytes32,address)": "36568abe",
    "revokeRole(bytes32,address)": "d547741f",
    "setDecayPerSecond(uint256)": "cd38de28",
    "supportsInterface(bytes4)": "01ffc9a7",
    "symbol()": "95d89b41",
    "tax(address)": "7899d80f",
    "totalSupply()": "18160ddd",
    "transfer(address,uint256)": "a9059cbb",
    "transferFrom(address,address,uint256)": "23b872dd",
    "transferOwnership(address)": "f2fde38b"
  },
  "id": 0
}