{
  "abi": [
    {
      "inputs": [
        {
          "internalType": "address[]",
          "name": "admins",
          "type": "address[]"
        }
      ],
      "stateMutability": "nonpayable",
      "type": "constructor"
    },
    {
      "inputs": [],
      "name": "AccessControlBadConfirmation",
      "type": "error"
    },
    {
      "inputs": [
        {
          "internalType": "address",
          "name": "account",
          "type": "address"
        },
        {
          "internalType": "bytes32",
          "name": "neededRole",
          "type": "bytes32"
        }
      ],
      "name": "AccessControlUnauthorizedAccount",
      "type": "error"
    },
    {
      "inputs": [
        {
          "internalType": "address",
          "name": "spender",
          "type": "address"
        },
        {
          "internalType": "uint256",
          "name": "allowance",
          "type": "uint256"
        },
        {
          "internalType": "uint256",
          "name": "needed",
          "type": "uint256"
        }
      ],
      "name": "ERC20InsufficientAllowance",
      "type": "error"
    },
    {
      "inputs": [
        {
          "internalType": "address",
          "name": "sender",
          "type": "address"
        },
        {
          "internalType": "uint256",
          "name": "balance",
          "type": "uint256"
        },
        {
          "internalType": "uint256",
          "name": "needed",
          "type": "uint256"
        }
      ],
      "name": "ERC20InsufficientBalance",
      "type": "error"
    },
    {
      "inputs": [
        {
          "internalType": "address",
          "name": "approver",
          "type": "address"
        }
      ],
      "name": "ERC20InvalidApprover",
      "type": "error"
    },
    {
      "inputs": [
        {
          "internalType": "address",
          "name": "receiver",
          "type": "address"
        }
      ],
      "name": "ERC20InvalidReceiver",
      "type": "error"
    },
    {
      "inputs": [
        {
          "internalType": "address",
          "name": "sender",
          "type": "address"
        }
      ],
      "name": "ERC20InvalidSender",
      "type": "error"
    },
    {
      "inputs": [
        {
          "internalType": "address",
          "name": "spender",
          "type": "address"
        }
      ],
      "name": "ERC20InvalidSpender",
      "type": "error"
    },
    {
      "inputs": [
        {
          "internalType": "address",
          "name": "owner",
          "type": "address"
        }
      ],
      "name": "OwnableInvalidOwner",
      "type": "error"
    },
    {
      "inputs": [
        {
          "internalType": "address",
          "name": "account",
          "type": "address"
        }
      ],
      "name": "OwnableUnauthorizedAccount",
      "type": "error"
    },
    {
      "anonymous": false,
      "inputs": [
        {
          "indexed": true,
          "internalType": "address",
          "name": "owner",
          "type": "address"
        },
        {
          "indexed": true,
          "internalType": "address",
          "name": "spender",
          "type": "address"
        },
        {
          "indexed": false,
          "internalType": "uint256",
          "name": "value",
          "type": "uint256"
        }
      ],
      "name": "Approval",
      "type": "event"
    },
    {
      "anonymous": false,
      "inputs": [
        {
          "indexed": true,
          "internalType": "address",
          "name": "to",
          "type": "address"
        },
        {
          "indexed": false,
          "internalType": "uint256",
          "name": "amount",
          "type": "uint256"
        },
        {
          "indexed": false,
          "internalType": "string",
          "name": "description",
          "type": "string"
        }
      ],
      "name": "Minted",
      "type": "event"
    },
    {
      "anonymous": false,
      "inputs": [
        {
          "indexed": true,
          "internalType": "address",
          "name": "previousOwner",
          "type": "address"
        },
        {
          "indexed": true,
          "internalType": "address",
          "name": "newOwner",
          "type": "address"
        }
      ],
      "name": "OwnershipTransferred",
      "type": "event"
    },
    {
      "anonymous": false,
      "inputs": [
        {
          "indexed": true,
          "internalType": "bytes32",
          "name": "role",
          "type": "bytes32"
        },
        {
          "indexed": true,
          "internalType": "bytes32",
          "name": "previousAdminRole",
          "type": "bytes32"
        },
        {
          "indexed": true,
          "internalType": "bytes32",
          "name": "newAdminRole",
          "type": "bytes32"
        }
      ],
      "name": "RoleAdminChanged",
      "type": "event"
    },
    {
      "anonymous": false,
      "inputs": [
        {
          "indexed": true,
          "internalType": "bytes32",
          "name": "role",
          "type": "bytes32"
        },
        {
          "indexed": true,
          "internalType": "address",
          "name": "account",
          "type": "address"
        },
        {
          "indexed": true,
          "internalType": "address",
          "name": "sender",
          "type": "address"
        }
      ],
      "name": "RoleGranted",
      "type": "event"
    },
    {
      "anonymous": false,
      "inputs": [
        {
          "indexed": true,
          "internalType": "bytes32",
          "name": "role",
          "type": "bytes32"
        },
        {
          "indexed": true,
          "internalType": "address",
          "name": "account",
          "type": "address"
        },
        {
          "indexed": true,
          "internalType": "address",
          "name": "sender",
          "type": "address"
        }
      ],
      "name": "RoleRevoked",
      "type": "event"
    },
    {
      "anonymous": false,
      "inputs": [
        {
          "indexed": true,
          "internalType": "address",
          "name": "from",
          "type": "address"
        },
        {
          "indexed": true,
          "internalType": "address",
          "name": "to",
          "type": "address"
        },
        {
          "indexed": false,
          "internalType": "uint256",
          "name": "value",
          "type": "uint256"
        }
      ],
      "name": "Transfer",
      "type": "event"
    },
    {
      "inputs": [],
      "name": "DEFAULT_ADMIN_ROLE",
      "outputs": [
        {
          "internalType": "bytes32",
          "name": "",
          "type": "bytes32"
        }
      ],
      "stateMutability": "view",
      "type": "function"
    },
    {
      "inputs": [],
      "name": "MINTER_ROLE",
      "outputs": [
        {
          "internalType": "bytes32",
          "name": "",
          "type": "bytes32"
        }
      ],
      "stateMutability": "view",
      "type": "function"
    },
    {
      "inputs": [
        {
          "internalType": "address",
          "name": "owner",
          "type": "address"
        },
        {
          "internalType": "address",
          "name": "spender",
          "type": "address"
        }
      ],
      "name": "allowance",
      "outputs": [
        {
          "internalType": "uint256",
          "name": "",
          "type": "uint256"
        }
      ],
      "stateMutability": "view",
      "type": "function"
    },
    {
      "inputs": [
        {
          "internalType": "address",
          "name": "spender",
          "type": "address"
        },
        {
          "internalType": "uint256",
          "name": "value",
          "type": "uint256"
        }
      ],
      "name": "approve",
      "outputs": [
        {
          "internalType": "bool",
          "name": "",
          "type": "bool"
        }
      ],
      "stateMutability": "nonpayable",
      "type": "function"
    },
    {
      "inputs": [
        {
          "internalType": "address",
          "name": "account",
          "type": "address"
        }
      ],
      "name": "balanceAfterDemurrage",
      "outputs": [
        {
          "internalType": "uint256",
          "name": "balance",
          "type": "uint256"
        }
      ],
      "stateMutability": "view",
      "type": "function"
    },
    {
      "inputs": [
        {
          "internalType": "address",
          "name": "account",
          "type": "address"
        }
      ],
      "name": "balanceOf",
      "outputs": [
        {
          "internalType": "uint256",
          "name": "",
          "type": "uint256"
        }
      ],
      "stateMutability": "view",
      "type": "function"
    },
    {
      "inputs": [
        {
          "internalType": "uint256",
          "name": "value",
          "type": "uint256"
        }
      ],
      "name": "burn",
      "outputs": [],
      "stateMutability": "nonpayable",
      "type": "function"
    },
    {
      "inputs": [
        {
          "internalType": "address",
          "name": "account",
          "type": "address"
        },
        {
          "internalType": "uint256",
          "name": "value",
          "type": "uint256"
        }
      ],
      "name": "burnFrom",
      "outputs": [],
      "stateMutability": "nonpayable",
      "type": "function"
    },
    {
      "inputs": [],
      "name": "decimals",
      "outputs": [
        {
          "internalType": "uint8",
          "name": "",
          "type": "uint8"
        }
      ],
      "stateMutability": "view",
      "type": "function"
    },
    {
      "inputs": [],
      "name": "decreaseFactor",
      "outputs": [
        {
          "internalType": "uint256",
          "name": "",
          "type": "uint256"
        }
      ],
      "stateMutability": "view",
      "type": "function"
    },
    {
      "inputs": [
        {
          "internalType": "address",
          "name": "account",
          "type": "address"
        }
      ],
      "name": "getDemurrage",
      "outputs": [
        {
          "internalType": "uint256",
          "name": "demurrage",
          "type": "uint256"
        }
      ],
      "stateMutability": "view",
      "type": "function"
    },
    {
      "inputs": [
        {
          "internalType": "bytes32",
          "name": "role",
          "type": "bytes32"
        }
      ],
      "name": "getRoleAdmin",
      "outputs": [
        {
          "internalType": "bytes32",
          "name": "",
          "type": "bytes32"
        }
      ],
      "stateMutability": "view",
      "type": "function"
    },
    {
      "inputs": [
        {
          "internalType": "bytes32",
          "name": "role",
          "type": "bytes32"
        },
        {
          "internalType": "address",
          "name": "account",
          "type": "address"
        }
      ],
      "name": "grantRole",
      "outputs": [],
      "stateMutability": "nonpayable",
      "type": "function"
    },
    {
      "inputs": [
        {
          "internalType": "bytes32",
          "name": "role",
          "type": "bytes32"
        },
        {
          "internalType": "address",
          "name": "account",
          "type": "address"
        }
      ],
      "name": "hasRole",
      "outputs": [
        {
          "internalType": "bool",
          "name": "",
          "type": "bool"
        }
      ],
      "stateMutability": "view",
      "type": "function"
    },
    {
      "inputs": [
        {
          "internalType": "address",
          "name": "",
          "type": "address"
        }
      ],
      "name": "lastActivity",
      "outputs": [
        {
          "internalType": "uint256",
          "name": "",
          "type": "uint256"
        }
      ],
      "stateMutability": "view",
      "type": "function"
    },
    {
      "inputs": [
        {
          "internalType": "uint256",
          "name": "top",
          "type": "uint256"
        },
        {
          "internalType": "uint256",
          "name": "dur",
          "type": "uint256"
        }
      ],
      "name": "linearDecrease",
      "outputs": [
        {
          "internalType": "uint256",
          "name": "",
          "type": "uint256"
        }
      ],
      "stateMutability": "view",
      "type": "function"
    },
    {
      "inputs": [
        {
          "internalType": "address",
          "name": "to",
          "type": "address"
        },
        {
          "internalType": "uint256",
          "name": "amount",
          "type": "uint256"
        },
        {
          "internalType": "string",
          "name": "description",
          "type": "string"
        }
      ],
      "name": "mint",
      "outputs": [],
      "stateMutability": "nonpayable",
      "type": "function"
    },
    {
      "inputs": [],
      "name": "name",
      "outputs": [
        {
          "internalType": "string",
          "name": "",
          "type": "string"
        }
      ],
      "stateMutability": "view",
      "type": "function"
    },
    {
      "inputs": [],
      "name": "owner",
      "outputs": [
        {
          "internalType": "address",
          "name": "",
          "type": "address"
        }
      ],
      "stateMutability": "view",
      "type": "function"
    },
    {
      "inputs": [],
      "name": "renounceOwnership",
      "outputs": [],
      "stateMutability": "nonpayable",
      "type": "function"
    },
    {
      "inputs": [
        {
          "internalType": "bytes32",
          "name": "role",
          "type": "bytes32"
        },
        {
          "internalType": "address",
          "name": "callerConfirmation",
          "type": "address"
        }
      ],
      "name": "renounceRole",
      "outputs": [],
      "stateMutability": "nonpayable",
      "type": "function"
    },
    {
      "inputs": [
        {
          "internalType": "bytes32",
          "name": "role",
          "type": "bytes32"
        },
        {
          "internalType": "address",
          "name": "account",
          "type": "address"
        }
      ],
      "name": "revokeRole",
      "outputs": [],
      "stateMutability": "nonpayable",
      "type": "function"
    },
    {
      "inputs": [
        {
          "internalType": "uint256",
          "name": "_decreaseFactor",
          "type": "uint256"
        }
      ],
      "name": "setDecreaseFactor",
      "outputs": [],
      "stateMutability": "nonpayable",
      "type": "function"
    },
    {
      "inputs": [
        {
          "internalType": "uint256",
          "name": "tau_",
          "type": "uint256"
        }
      ],
      "name": "setTau",
      "outputs": [],
      "stateMutability": "nonpayable",
      "type": "function"
    },
    {
      "inputs": [
        {
          "internalType": "bytes4",
          "name": "interfaceId",
          "type": "bytes4"
        }
      ],
      "name": "supportsInterface",
      "outputs": [
        {
          "internalType": "bool",
          "name": "",
          "type": "bool"
        }
      ],
      "stateMutability": "view",
      "type": "function"
    },
    {
      "inputs": [],
      "name": "symbol",
      "outputs": [
        {
          "internalType": "string",
          "name": "",
          "type": "string"
        }
      ],
      "stateMutability": "view",
      "type": "function"
    },
    {
      "inputs": [],
      "name": "tau",
      "outputs": [
        {
          "internalType": "uint256",
          "name": "",
          "type": "uint256"
        }
      ],
      "stateMutability": "view",
      "type": "function"
    },
    {
      "inputs": [
        {
          "internalType": "address",
          "name": "account",
          "type": "address"
        }
      ],
      "name": "tax",
      "outputs": [],
      "stateMutability": "nonpayable",
      "type": "function"
    },
    {
      "inputs": [],
      "name": "totalSupply",
      "outputs": [
        {
          "internalType": "uint256",
          "name": "",
          "type": "uint256"
        }
      ],
      "stateMutability": "view",
      "type": "function"
    },
    {
      "inputs": [
        {
          "internalType": "address",
          "name": "to",
          "type": "address"
        },
        {
          "internalType": "uint256",
          "name": "value",
          "type": "uint256"
        }
      ],
      "name": "transfer",
      "outputs": [
        {
          "internalType": "bool",
          "name": "",
          "type": "bool"
        }
      ],
      "stateMutability": "nonpayable",
      "type": "function"
    },
    {
      "inputs": [
        {
          "internalType": "address",
          "name": "from",
          "type": "address"
        },
        {
          "internalType": "address",
          "name": "to",
          "type": "address"
        },
        {
          "internalType": "uint256",
          "name": "value",
          "type": "uint256"
        }
      ],
      "name": "transferFrom",
      "outputs": [
        {
          "internalType": "bool",
          "name": "",
          "type": "bool"
        }
      ],
      "stateMutability": "nonpayable",
      "type": "function"
    },
    {
      "inputs": [
        {
          "internalType": "address",
          "name": "newOwner",
          "type": "address"
        }
      ],
      "name": "transferOwnership",
      "outputs": [],
      "stateMutability": "nonpayable",
      "type": "function"
    }
  ],
  "bytecode": {
    "object": "0x60806040526305f5e100620000256b033b2e3c9fd0803ce80000006305f5e0fe620002af565b620000319190620002c9565b6007556303c267006008553480156200004957600080fd5b50604051620018ee380380620018ee8339810160408190526200006c916200031f565b336040518060400160405280600d81526020016c21393ab9b9b2b6399021b7b4b760991b8152506040518060400160405280600381526020016210961360ea1b8152508160039081620000c0919062000480565b506004620000cf828262000480565b5050506001600160a01b0381166200010157604051631e4fbdf760e01b81526000600482015260240160405180910390fd5b6200010c8162000194565b506200011a600033620001e6565b5060005b81518110156200018c57620001767f9f2df0fed2c77648de5860a4cc508cd0818c85b8b8a1ab4ceeef8d981c8956a68383815181106200016257620001626200054c565b6020026020010151620001e660201b60201c565b5080620001838162000562565b9150506200011e565b50506200057e565b600580546001600160a01b038381166001600160a01b0319831681179093556040519116919082907f8be0079c531659141344cd1fd0a4f28419497f9722a3daafe3b4186f6b6457e090600090a35050565b60008281526006602090815260408083206001600160a01b038516845290915281205460ff166200028f5760008381526006602090815260408083206001600160a01b03861684529091529020805460ff19166001179055620002463390565b6001600160a01b0316826001600160a01b0316847f2f8788117e7eff1d82e926ec794901d17c78024a50270940304540a733656f0d60405160405180910390a450600162000293565b5060005b92915050565b634e487b7160e01b600052601160045260246000fd5b808202811582820484141762000293576200029362000299565b600082620002e757634e487b7160e01b600052601260045260246000fd5b500490565b634e487b7160e01b600052604160045260246000fd5b80516001600160a01b03811681146200031a57600080fd5b919050565b600060208083850312156200033357600080fd5b82516001600160401b03808211156200034b57600080fd5b818501915085601f8301126200036057600080fd5b815181811115620003755762000375620002ec565b8060051b604051601f19603f830116810181811085821117156200039d576200039d620002ec565b604052918252848201925083810185019188831115620003bc57600080fd5b938501935b82851015620003e557620003d58562000302565b84529385019392850192620003c1565b98975050505050505050565b600181811c908216806200040657607f821691505b6020821081036200042757634e487b7160e01b600052602260045260246000fd5b50919050565b601f8211156200047b57600081815260208120601f850160051c81016020861015620004565750805b601f850160051c820191505b81811015620004775782815560010162000462565b5050505b505050565b81516001600160401b038111156200049c576200049c620002ec565b620004b481620004ad8454620003f1565b846200042d565b602080601f831160018114620004ec5760008415620004d35750858301515b600019600386901b1c1916600185901b17855562000477565b600085815260208120601f198616915b828110156200051d57888601518255948401946001909101908401620004fc565b50858210156200053c5787850151600019600388901b60f8161c191681555b5050505050600190811b01905550565b634e487b7160e01b600052603260045260246000fd5b60006001820162000577576200057762000299565b5060010190565b611360806200058e6000396000f3fe608060405234801561001057600080fd5b50600436106101f05760003560e01c80638da5cb5b1161010f578063cfc4af55116100a2578063dd62ed3e11610071578063dd62ed3e1461042e578063e747a69214610467578063f07e96b31461047a578063f2fde38b1461049a57600080fd5b8063cfc4af55146103d8578063d3fc9864146103e1578063d5391393146103f4578063d547741f1461041b57600080fd5b8063a9059cbb116100de578063a9059cbb14610396578063bb352120146103a9578063cbcc7612146103b2578063cd50de86146103c557600080fd5b80638da5cb5b1461035857806391d148541461037357806395d89b4114610386578063a217fddf1461038e57600080fd5b8063313ce56711610187578063715018a611610156578063715018a6146103175780637866cdd81461031f5780637899d80f1461033257806379cc67901461034557600080fd5b8063313ce567146102b957806336568abe146102c857806342966c68146102db57806370a08231146102ee57600080fd5b806318160ddd116101c357806318160ddd1461026657806323b872dd1461026e578063248a9ca3146102815780632f2ff15d146102a457600080fd5b806301ffc9a7146101f5578063064e55d01461021d57806306fdde031461023e578063095ea7b314610253575b600080fd5b610208610203366004610f81565b6104ad565b60405190151581526020015b60405180910390f35b61023061022b366004610fc7565b6104e4565b604051908152602001610214565b61024661051d565b6040516102149190611028565b61020861026136600461103b565b6105af565b600254610230565b61020861027c366004611065565b6105c7565b61023061028f3660046110a1565b60009081526006602052604090206001015490565b6102b76102b23660046110ba565b610677565b005b60405160068152602001610214565b6102b76102d63660046110ba565b6106a2565b6102b76102e93660046110a1565b6106da565b6102306102fc366004610fc7565b6001600160a01b031660009081526020819052604090205490565b6102b76106e7565b61023061032d3660046110e6565b6106fb565b6102b7610340366004610fc7565b610745565b6102b761035336600461103b565b610774565b6005546040516001600160a01b039091168152602001610214565b6102086103813660046110ba565b610789565b6102466107b4565b610230600081565b6102086103a436600461103b565b6107c3565b61023060075481565b6102306103c0366004610fc7565b610857565b6102b76103d33660046110a1565b610893565b61023060085481565b6102b76103ef36600461111e565b6108b0565b6102307f9f2df0fed2c77648de5860a4cc508cd0818c85b8b8a1ab4ceeef8d981c8956a681565b6102b76104293660046110ba565b610993565b61023061043c3660046111e9565b6001600160a01b03918216600090815260016020908152604080832093909416825291909152205490565b6102b76104753660046110a1565b6109b8565b610230610488366004610fc7565b60096020526000908152604090205481565b6102b76104a8366004610fc7565b6109c5565b60006001600160e01b03198216637965db0b60e01b14806104de57506301ffc9a760e01b6001600160e01b03198316145b92915050565b6001600160a01b03811660009081526020818152604080832054600990925282205461051690829061032d9042611229565b9392505050565b60606003805461052c9061123c565b80601f01602080910402602001604051908101604052809291908181526020018280546105589061123c565b80156105a55780601f1061057a576101008083540402835291602001916105a5565b820191906000526020600020905b81548152906001019060200180831161058857829003601f168201915b5050505050905090565b6000336105bd818585610a00565b5060019392505050565b6000336105d5858285610a0d565b60006105e086610857565b6001600160a01b03871660009081526009602052604090204290559050610619866106136005546001600160a01b031690565b83610a85565b83610639836001600160a01b031660009081526020819052604090205490565b10156106605760405162461bcd60e51b815260040161065790611276565b60405180910390fd5b61066b868686610a85565b50600195945050505050565b60008281526006602052604090206001015461069281610ae4565b61069c8383610aee565b50505050565b6001600160a01b03811633146106cb5760405163334bd91960e11b815260040160405180910390fd5b6106d58282610b82565b505050565b6106e43382610bef565b50565b6106ef610c25565b6106f96000610c52565b565b6000600854821061070e575060006104de565b6008546105169084906107366107248683611229565b6b033b2e3c9fd0803ce8000000610ca4565b61074091906112bd565b610cd1565b61074d610c25565b600061075882610857565b9050610770826106136005546001600160a01b031690565b5050565b61077f823383610a0d565b6107708282610bef565b60009182526006602090815260408084206001600160a01b0393909316845291905290205460ff1690565b60606004805461052c9061123c565b600033816107d082610857565b6001600160a01b03831660009081526009602052604090204290559050610803826106136005546001600160a01b031690565b83610823836001600160a01b031660009081526020819052604090205490565b10156108415760405162461bcd60e51b815260040161065790611276565b61084c828686610a85565b506001949350505050565b6001600160a01b03811660009081526020818152604080832054600990925282205461088990829061032d9042611229565b6105169082611229565b61089b610c25565b62278d008110156108ab57600080fd5b600855565b6108da7f9f2df0fed2c77648de5860a4cc508cd0818c85b8b8a1ab4ceeef8d981c8956a633610789565b6109265760405162461bcd60e51b815260206004820152601d60248201527f4d7573742068617665206d696e74657220726f6c6520746f206d696e740000006044820152606401610657565b6001600160a01b038316600090815260096020526040902042905561094b8383610d13565b826001600160a01b03167fe7cd4ce7f2a465edc730269a1305e8a48bad821e8fb7e152ec413829c01a53c483836040516109869291906112df565b60405180910390a2505050565b6000828152600660205260409020600101546109ae81610ae4565b61069c8383610b82565b6109c0610c25565b600755565b6109cd610c25565b6001600160a01b0381166109f757604051631e4fbdf760e01b815260006004820152602401610657565b6106e481610c52565b6106d58383836001610d49565b6001600160a01b03838116600090815260016020908152604080832093861683529290522054600019811461069c5781811015610a7657604051637dc7a0d960e11b81526001600160a01b03841660048201526024810182905260448101839052606401610657565b61069c84848484036000610d49565b6001600160a01b038316610aaf57604051634b637e8f60e11b815260006004820152602401610657565b6001600160a01b038216610ad95760405163ec442f0560e01b815260006004820152602401610657565b6106d5838383610e1e565b6106e48133610f48565b6000610afa8383610789565b610b7a5760008381526006602090815260408083206001600160a01b03861684529091529020805460ff19166001179055610b323390565b6001600160a01b0316826001600160a01b0316847f2f8788117e7eff1d82e926ec794901d17c78024a50270940304540a733656f0d60405160405180910390a45060016104de565b5060006104de565b6000610b8e8383610789565b15610b7a5760008381526006602090815260408083206001600160a01b0386168085529252808320805460ff1916905551339286917ff6391f5c32d9c69d2a47ea670b442974b53935d1edc7fd64eb21e047a839171b9190a45060016104de565b6001600160a01b038216610c1957604051634b637e8f60e11b815260006004820152602401610657565b61077082600083610e1e565b6005546001600160a01b031633146106f95760405163118cdaa760e01b8152336004820152602401610657565b600580546001600160a01b038381166001600160a01b0319831681179093556040519116919082907f8be0079c531659141344cd1fd0a4f28419497f9722a3daafe3b4186f6b6457e090600090a35050565b6000811580610cc857508282610cba8183611300565b9250610cc690836112bd565b145b6104de57600080fd5b6000610cdd8284611300565b9050811580610cf4575082610cf283836112bd565b145b610cfd57600080fd5b6105166b033b2e3c9fd0803ce8000000826112bd565b6001600160a01b038216610d3d5760405163ec442f0560e01b815260006004820152602401610657565b61077060008383610e1e565b6001600160a01b038416610d735760405163e602df0560e01b815260006004820152602401610657565b6001600160a01b038316610d9d57604051634a1406b160e11b815260006004820152602401610657565b6001600160a01b038085166000908152600160209081526040808320938716835292905220829055801561069c57826001600160a01b0316846001600160a01b03167f8c5be1e5ebec7d5bd14f71427d1e84f3dd0314c0f7b2291e5b200ac8c7c3b92584604051610e1091815260200190565b60405180910390a350505050565b6001600160a01b038316610e49578060026000828254610e3e9190611317565b90915550610ebb9050565b6001600160a01b03831660009081526020819052604090205481811015610e9c5760405163391434e360e21b81526001600160a01b03851660048201526024810182905260448101839052606401610657565b6001600160a01b03841660009081526020819052604090209082900390555b6001600160a01b038216610ed757600280548290039055610ef6565b6001600160a01b03821660009081526020819052604090208054820190555b816001600160a01b0316836001600160a01b03167fddf252ad1be2c89b69c2b068fc378daa952ba7f163c4a11628f55a4df523b3ef83604051610f3b91815260200190565b60405180910390a3505050565b610f528282610789565b6107705760405163e2517d3f60e01b81526001600160a01b038216600482015260248101839052604401610657565b600060208284031215610f9357600080fd5b81356001600160e01b03198116811461051657600080fd5b80356001600160a01b0381168114610fc257600080fd5b919050565b600060208284031215610fd957600080fd5b61051682610fab565b6000815180845260005b8181101561100857602081850181015186830182015201610fec565b506000602082860101526020601f19601f83011685010191505092915050565b6020815260006105166020830184610fe2565b6000806040838503121561104e57600080fd5b61105783610fab565b946020939093013593505050565b60008060006060848603121561107a57600080fd5b61108384610fab565b925061109160208501610fab565b9150604084013590509250925092565b6000602082840312156110b357600080fd5b5035919050565b600080604083850312156110cd57600080fd5b823591506110dd60208401610fab565b90509250929050565b600080604083850312156110f957600080fd5b50508035926020909101359150565b634e487b7160e01b600052604160045260246000fd5b60008060006060848603121561113357600080fd5b61113c84610fab565b925060208401359150604084013567ffffffffffffffff8082111561116057600080fd5b818601915086601f83011261117457600080fd5b81358181111561118657611186611108565b604051601f8201601f19908116603f011681019083821181831017156111ae576111ae611108565b816040528281528960208487010111156111c757600080fd5b8260208601602083013760006020848301015280955050505050509250925092565b600080604083850312156111fc57600080fd5b61120583610fab565b91506110dd60208401610fab565b634e487b7160e01b600052601160045260246000fd5b818103818111156104de576104de611213565b600181811c9082168061125057607f821691505b60208210810361127057634e487b7160e01b600052602260045260246000fd5b50919050565b60208082526027908201527f4e6f7420656e6f7567682062616c616e63652c20636865636b20666f722064656040820152666d75727261676560c81b606082015260800190565b6000826112da57634e487b7160e01b600052601260045260246000fd5b500490565b8281526040602082015260006112f86040830184610fe2565b949350505050565b80820281158282048414176104de576104de611213565b808201808211156104de576104de61121356fea26469706673582212206684b7b030562459e3aa861106a01a935cd6a9e0ad3d2628ea4f70d6268ab1a364736f6c63430008140033",
    "linkReferences": {}
  },
  "methodIdentifiers": {
    "DEFAULT_ADMIN_ROLE()": "a217fddf",
    "MINTER_ROLE()": "d5391393",
    "allowance(address,address)": "dd62ed3e",
    "approve(address,uint256)": "095ea7b3",
    "balanceAfterDemurrage(address)": "064e55d0",
    "balanceOf(address)": "70a08231",
    "burn(uint256)": "42966c68",
    "burnFrom(address,uint256)": "79cc6790",
    "decimals()": "313ce567",
    "decreaseFactor()": "bb352120",
    "getDemurrage(address)": "cbcc7612",
    "getRoleAdmin(bytes32)": "248a9ca3",
    "grantRole(bytes32,address)": "2f2ff15d",
    "hasRole(bytes32,address)": "91d14854",
    "lastActivity(address)": "f07e96b3",
    "linearDecrease(uint256,uint256)": "7866cdd8",
    "mint(address,uint256,string)": "d3fc9864",
    "name()": "06fdde03",
    "owner()": "8da5cb5b",
    "renounceOwnership()": "715018a6",
    "renounceRole(bytes32,address)": "36568abe",
    "revokeRole(bytes32,address)": "d547741f",
    "setDecreaseFactor(uint256)": "e747a692",
    "setTau(uint256)": "cd50de86",
    "supportsInterface(bytes4)": "01ffc9a7",
    "symbol()": "95d89b41",
    "tau()": "cfc4af55",
    "tax(address)": "7899d80f",
    "totalSupply()": "18160ddd",
    "transfer(address,uint256)": "a9059cbb",
    "transferFrom(address,address,uint256)": "23b872dd",
    "transferOwnership(address)": "f2fde38b"
  },
  "id": 0
}